{
	"contracts/Hostel.sol": {
		"Hostel": {
			"abi": [
				{
					"inputs": [],
					"stateMutability": "nonpayable",
					"type": "constructor"
				},
				{
					"inputs": [
						{
							"internalType": "uint8",
							"name": "_roomNumber",
							"type": "uint8"
						},
						{
							"internalType": "string",
							"name": "_name",
							"type": "string"
						},
						{
							"internalType": "string",
							"name": "_surname",
							"type": "string"
						},
						{
							"internalType": "uint256",
							"name": "_numberOfDays",
							"type": "uint256"
						}
					],
					"name": "RentRoom",
					"outputs": [],
					"stateMutability": "payable",
					"type": "function"
				},
				{
					"inputs": [
						{
							"internalType": "uint8",
							"name": "",
							"type": "uint8"
						}
					],
					"name": "RoomExpireTime",
					"outputs": [
						{
							"internalType": "uint256",
							"name": "",
							"type": "uint256"
						}
					],
					"stateMutability": "view",
					"type": "function"
				},
				{
					"inputs": [
						{
							"internalType": "uint8",
							"name": "",
							"type": "uint8"
						}
					],
					"name": "RoomNumberToCustomer",
					"outputs": [
						{
							"internalType": "address",
							"name": "",
							"type": "address"
						}
					],
					"stateMutability": "view",
					"type": "function"
				},
				{
					"inputs": [
						{
							"internalType": "uint256",
							"name": "newPrice",
							"type": "uint256"
						}
					],
					"name": "changeRoomPrice",
					"outputs": [],
					"stateMutability": "nonpayable",
					"type": "function"
				},
				{
					"inputs": [
						{
							"internalType": "uint8",
							"name": "_roomNumber",
							"type": "uint8"
						}
					],
					"name": "checkRoomExpiration",
					"outputs": [
						{
							"internalType": "uint256",
							"name": "",
							"type": "uint256"
						}
					],
					"stateMutability": "view",
					"type": "function"
				},
				{
					"inputs": [],
					"name": "getCurrentContractBalance",
					"outputs": [
						{
							"internalType": "uint256",
							"name": "",
							"type": "uint256"
						}
					],
					"stateMutability": "view",
					"type": "function"
				},
				{
					"inputs": [],
					"name": "getRoomsPrice",
					"outputs": [
						{
							"internalType": "uint256",
							"name": "",
							"type": "uint256"
						}
					],
					"stateMutability": "view",
					"type": "function"
				},
				{
					"inputs": [
						{
							"internalType": "uint8",
							"name": "_RoomNumber",
							"type": "uint8"
						}
					],
					"name": "isRoomAvailable",
					"outputs": [
						{
							"internalType": "bool",
							"name": "",
							"type": "bool"
						}
					],
					"stateMutability": "view",
					"type": "function"
				},
				{
					"inputs": [],
					"name": "owner",
					"outputs": [
						{
							"internalType": "address",
							"name": "",
							"type": "address"
						}
					],
					"stateMutability": "view",
					"type": "function"
				},
				{
					"inputs": [],
					"name": "removeExpiredCustomersFromRooms",
					"outputs": [],
					"stateMutability": "nonpayable",
					"type": "function"
				},
				{
					"inputs": [
						{
							"internalType": "address payable",
							"name": "_to",
							"type": "address"
						}
					],
					"name": "withdrawAll",
					"outputs": [],
					"stateMutability": "nonpayable",
					"type": "function"
				}
			],
			"devdoc": {
				"kind": "dev",
				"methods": {},
				"version": 1
			},
			"evm": {
				"assembly": "    /* \"contracts/Hostel.sol\":166:2347  contract Hostel {... */\n  mstore(0x40, 0x80)\n    /* \"contracts/Hostel.sol\":352:373  50000000000000000 wei */\n  0xb1a2bc2ec50000\n    /* \"contracts/Hostel.sol\":324:373  uint private RoomPriceWei = 50000000000000000 wei */\n  0x03\n  sstore\n    /* \"contracts/Hostel.sol\":392:441  constructor() {... */\n  callvalue\n  dup1\n  iszero\n  tag_1\n  jumpi\n  0x00\n  dup1\n  revert\ntag_1:\n  pop\n    /* \"contracts/Hostel.sol\":424:434  msg.sender */\n  caller\n    /* \"contracts/Hostel.sol\":416:421  owner */\n  0x00\n  dup1\n    /* \"contracts/Hostel.sol\":416:434  owner = msg.sender */\n  0x0100\n  exp\n  dup2\n  sload\n  dup2\n  0xffffffffffffffffffffffffffffffffffffffff\n  mul\n  not\n  and\n  swap1\n  dup4\n  0xffffffffffffffffffffffffffffffffffffffff\n  and\n  mul\n  or\n  swap1\n  sstore\n  pop\n    /* \"contracts/Hostel.sol\":166:2347  contract Hostel {... */\n  dataSize(sub_0)\n  dup1\n  dataOffset(sub_0)\n  0x00\n  codecopy\n  0x00\n  return\nstop\n\nsub_0: assembly {\n        /* \"contracts/Hostel.sol\":166:2347  contract Hostel {... */\n      mstore(0x40, 0x80)\n      jumpi(tag_1, lt(calldatasize, 0x04))\n      shr(0xe0, calldataload(0x00))\n      dup1\n      0x8da5cb5b\n      gt\n      tag_13\n      jumpi\n      dup1\n      0x8da5cb5b\n      eq\n      tag_7\n      jumpi\n      dup1\n      0xbdfe2eea\n      eq\n      tag_8\n      jumpi\n      dup1\n      0xbfdbac03\n      eq\n      tag_9\n      jumpi\n      dup1\n      0xee562879\n      eq\n      tag_10\n      jumpi\n      dup1\n      0xfa09e630\n      eq\n      tag_11\n      jumpi\n      dup1\n      0xfc76c1d6\n      eq\n      tag_12\n      jumpi\n      jump(tag_1)\n    tag_13:\n      dup1\n      0x30392ac6\n      eq\n      tag_2\n      jumpi\n      dup1\n      0x3bd33af8\n      eq\n      tag_3\n      jumpi\n      dup1\n      0x4297fe02\n      eq\n      tag_4\n      jumpi\n      dup1\n      0x6d790081\n      eq\n      tag_5\n      jumpi\n      dup1\n      0x86a1b2dc\n      eq\n      tag_6\n      jumpi\n    tag_1:\n      0x00\n      dup1\n      revert\n        /* \"contracts/Hostel.sol\":1576:1673  function changeRoomPrice(uint newPrice) public onlyOwner {... */\n    tag_2:\n      callvalue\n      dup1\n      iszero\n      tag_14\n      jumpi\n      0x00\n      dup1\n      revert\n    tag_14:\n      pop\n      tag_15\n      0x04\n      dup1\n      calldatasize\n      sub\n      dup2\n      add\n      swap1\n      tag_16\n      swap2\n      swap1\n      tag_17\n      jump\t// in\n    tag_16:\n      tag_18\n      jump\t// in\n    tag_15:\n      stop\n        /* \"contracts/Hostel.sol\":1772:1898  function checkRoomExpiration(uint8 _roomNumber) public view returns (uint) {... */\n    tag_3:\n      callvalue\n      dup1\n      iszero\n      tag_19\n      jumpi\n      0x00\n      dup1\n      revert\n    tag_19:\n      pop\n      tag_20\n      0x04\n      dup1\n      calldatasize\n      sub\n      dup2\n      add\n      swap1\n      tag_21\n      swap2\n      swap1\n      tag_22\n      jump\t// in\n    tag_21:\n      tag_23\n      jump\t// in\n    tag_20:\n      mload(0x40)\n      tag_24\n      swap2\n      swap1\n      tag_25\n      jump\t// in\n    tag_24:\n      mload(0x40)\n      dup1\n      swap2\n      sub\n      swap1\n      return\n        /* \"contracts/Hostel.sol\":274:318  mapping(uint8 => uint) public RoomExpireTime */\n    tag_4:\n      callvalue\n      dup1\n      iszero\n      tag_26\n      jumpi\n      0x00\n      dup1\n      revert\n    tag_26:\n      pop\n      tag_27\n      0x04\n      dup1\n      calldatasize\n      sub\n      dup2\n      add\n      swap1\n      tag_28\n      swap2\n      swap1\n      tag_22\n      jump\t// in\n    tag_28:\n      tag_29\n      jump\t// in\n    tag_27:\n      mload(0x40)\n      tag_30\n      swap2\n      swap1\n      tag_25\n      jump\t// in\n    tag_30:\n      mload(0x40)\n      dup1\n      swap2\n      sub\n      swap1\n      return\n        /* \"contracts/Hostel.sol\":1344:1452  function getCurrentContractBalance() public view returns(uint) {... */\n    tag_5:\n      callvalue\n      dup1\n      iszero\n      tag_31\n      jumpi\n      0x00\n      dup1\n      revert\n    tag_31:\n      pop\n      tag_32\n      tag_33\n      jump\t// in\n    tag_32:\n      mload(0x40)\n      tag_34\n      swap2\n      swap1\n      tag_25\n      jump\t// in\n    tag_34:\n      mload(0x40)\n      dup1\n      swap2\n      sub\n      swap1\n      return\n        /* \"contracts/Hostel.sol\":570:1189  function RentRoom(uint8 _roomNumber, string memory _name, string memory _surname, uint _numberOfDays) payable public {... */\n    tag_6:\n      tag_35\n      0x04\n      dup1\n      calldatasize\n      sub\n      dup2\n      add\n      swap1\n      tag_36\n      swap2\n      swap1\n      tag_37\n      jump\t// in\n    tag_36:\n      tag_38\n      jump\t// in\n    tag_35:\n      stop\n        /* \"contracts/Hostel.sol\":189:209  address public owner */\n    tag_7:\n      callvalue\n      dup1\n      iszero\n      tag_39\n      jumpi\n      0x00\n      dup1\n      revert\n    tag_39:\n      pop\n      tag_40\n      tag_41\n      jump\t// in\n    tag_40:\n      mload(0x40)\n      tag_42\n      swap2\n      swap1\n      tag_43\n      jump\t// in\n    tag_42:\n      mload(0x40)\n      dup1\n      swap2\n      sub\n      swap1\n      return\n        /* \"contracts/Hostel.sol\":1904:2345  function removeExpiredCustomersFromRooms() public {... */\n    tag_8:\n      callvalue\n      dup1\n      iszero\n      tag_44\n      jumpi\n      0x00\n      dup1\n      revert\n    tag_44:\n      pop\n      tag_45\n      tag_46\n      jump\t// in\n    tag_45:\n      stop\n        /* \"contracts/Hostel.sol\":1195:1338  function isRoomAvailable(uint8 _RoomNumber) public view returns(bool) {... */\n    tag_9:\n      callvalue\n      dup1\n      iszero\n      tag_47\n      jumpi\n      0x00\n      dup1\n      revert\n    tag_47:\n      pop\n      tag_48\n      0x04\n      dup1\n      calldatasize\n      sub\n      dup2\n      add\n      swap1\n      tag_49\n      swap2\n      swap1\n      tag_22\n      jump\t// in\n    tag_49:\n      tag_50\n      jump\t// in\n    tag_48:\n      mload(0x40)\n      tag_51\n      swap2\n      swap1\n      tag_52\n      jump\t// in\n    tag_51:\n      mload(0x40)\n      dup1\n      swap2\n      sub\n      swap1\n      return\n        /* \"contracts/Hostel.sol\":1679:1766  function getRoomsPrice() public view returns(uint) {... */\n    tag_10:\n      callvalue\n      dup1\n      iszero\n      tag_53\n      jumpi\n      0x00\n      dup1\n      revert\n    tag_53:\n      pop\n      tag_54\n      tag_55\n      jump\t// in\n    tag_54:\n      mload(0x40)\n      tag_56\n      swap2\n      swap1\n      tag_25\n      jump\t// in\n    tag_56:\n      mload(0x40)\n      dup1\n      swap2\n      sub\n      swap1\n      return\n        /* \"contracts/Hostel.sol\":1458:1569  function withdrawAll(address payable _to) public onlyOwner {... */\n    tag_11:\n      callvalue\n      dup1\n      iszero\n      tag_57\n      jumpi\n      0x00\n      dup1\n      revert\n    tag_57:\n      pop\n      tag_58\n      0x04\n      dup1\n      calldatasize\n      sub\n      dup2\n      add\n      swap1\n      tag_59\n      swap2\n      swap1\n      tag_60\n      jump\t// in\n    tag_59:\n      tag_61\n      jump\t// in\n    tag_58:\n      stop\n        /* \"contracts/Hostel.sol\":215:268  mapping(uint8 => address) public RoomNumberToCustomer */\n    tag_12:\n      callvalue\n      dup1\n      iszero\n      tag_62\n      jumpi\n      0x00\n      dup1\n      revert\n    tag_62:\n      pop\n      tag_63\n      0x04\n      dup1\n      calldatasize\n      sub\n      dup2\n      add\n      swap1\n      tag_64\n      swap2\n      swap1\n      tag_22\n      jump\t// in\n    tag_64:\n      tag_65\n      jump\t// in\n    tag_63:\n      mload(0x40)\n      tag_66\n      swap2\n      swap1\n      tag_43\n      jump\t// in\n    tag_66:\n      mload(0x40)\n      dup1\n      swap2\n      sub\n      swap1\n      return\n        /* \"contracts/Hostel.sol\":1576:1673  function changeRoomPrice(uint newPrice) public onlyOwner {... */\n    tag_18:\n        /* \"contracts/Hostel.sol\":500:505  owner */\n      0x00\n      dup1\n      sload\n      swap1\n      0x0100\n      exp\n      swap1\n      div\n      0xffffffffffffffffffffffffffffffffffffffff\n      and\n        /* \"contracts/Hostel.sol\":486:505  msg.sender == owner */\n      0xffffffffffffffffffffffffffffffffffffffff\n      and\n        /* \"contracts/Hostel.sol\":486:496  msg.sender */\n      caller\n        /* \"contracts/Hostel.sol\":486:505  msg.sender == owner */\n      0xffffffffffffffffffffffffffffffffffffffff\n      and\n      eq\n        /* \"contracts/Hostel.sol\":478:546  require(msg.sender == owner, \"Only owner can execute this function\") */\n      tag_68\n      jumpi\n      mload(0x40)\n      0x08c379a000000000000000000000000000000000000000000000000000000000\n      dup2\n      mstore\n      0x04\n      add\n      tag_69\n      swap1\n      tag_70\n      jump\t// in\n    tag_69:\n      mload(0x40)\n      dup1\n      swap2\n      sub\n      swap1\n      revert\n    tag_68:\n        /* \"contracts/Hostel.sol\":1658:1666  newPrice */\n      dup1\n        /* \"contracts/Hostel.sol\":1643:1655  RoomPriceWei */\n      0x03\n        /* \"contracts/Hostel.sol\":1643:1666  RoomPriceWei = newPrice */\n      dup2\n      swap1\n      sstore\n      pop\n        /* \"contracts/Hostel.sol\":1576:1673  function changeRoomPrice(uint newPrice) public onlyOwner {... */\n      pop\n      jump\t// out\n        /* \"contracts/Hostel.sol\":1772:1898  function checkRoomExpiration(uint8 _roomNumber) public view returns (uint) {... */\n    tag_23:\n        /* \"contracts/Hostel.sol\":1841:1845  uint */\n      0x00\n        /* \"contracts/Hostel.sol\":1864:1878  RoomExpireTime */\n      0x02\n        /* \"contracts/Hostel.sol\":1864:1891  RoomExpireTime[_roomNumber] */\n      0x00\n        /* \"contracts/Hostel.sol\":1879:1890  _roomNumber */\n      dup4\n        /* \"contracts/Hostel.sol\":1864:1891  RoomExpireTime[_roomNumber] */\n      0xff\n      and\n      0xff\n      and\n      dup2\n      mstore\n      0x20\n      add\n      swap1\n      dup2\n      mstore\n      0x20\n      add\n      0x00\n      keccak256\n      sload\n        /* \"contracts/Hostel.sol\":1857:1891  return RoomExpireTime[_roomNumber] */\n      swap1\n      pop\n        /* \"contracts/Hostel.sol\":1772:1898  function checkRoomExpiration(uint8 _roomNumber) public view returns (uint) {... */\n      swap2\n      swap1\n      pop\n      jump\t// out\n        /* \"contracts/Hostel.sol\":274:318  mapping(uint8 => uint) public RoomExpireTime */\n    tag_29:\n      mstore(0x20, 0x02)\n      dup1\n      0x00\n      mstore\n      keccak256(0x00, 0x40)\n      0x00\n      swap2\n      pop\n      swap1\n      pop\n      sload\n      dup2\n      jump\t// out\n        /* \"contracts/Hostel.sol\":1344:1452  function getCurrentContractBalance() public view returns(uint) {... */\n    tag_33:\n        /* \"contracts/Hostel.sol\":1401:1405  uint */\n      0x00\n        /* \"contracts/Hostel.sol\":1424:1445  address(this).balance */\n      selfbalance\n        /* \"contracts/Hostel.sol\":1417:1445  return address(this).balance */\n      swap1\n      pop\n        /* \"contracts/Hostel.sol\":1344:1452  function getCurrentContractBalance() public view returns(uint) {... */\n      swap1\n      jump\t// out\n        /* \"contracts/Hostel.sol\":570:1189  function RentRoom(uint8 _roomNumber, string memory _name, string memory _surname, uint _numberOfDays) payable public {... */\n    tag_38:\n        /* \"contracts/Hostel.sol\":697:717  bool isroomavailable */\n      0x00\n        /* \"contracts/Hostel.sol\":720:748  isRoomAvailable(_roomNumber) */\n      tag_75\n        /* \"contracts/Hostel.sol\":736:747  _roomNumber */\n      dup6\n        /* \"contracts/Hostel.sol\":720:735  isRoomAvailable */\n      tag_50\n        /* \"contracts/Hostel.sol\":720:748  isRoomAvailable(_roomNumber) */\n      jump\t// in\n    tag_75:\n        /* \"contracts/Hostel.sol\":697:748  bool isroomavailable = isRoomAvailable(_roomNumber) */\n      swap1\n      pop\n        /* \"contracts/Hostel.sol\":767:782  isroomavailable */\n      dup1\n        /* \"contracts/Hostel.sol\":759:818  require(isroomavailable, \"The room has already been taken\") */\n      tag_76\n      jumpi\n      mload(0x40)\n      0x08c379a000000000000000000000000000000000000000000000000000000000\n      dup2\n      mstore\n      0x04\n      add\n      tag_77\n      swap1\n      tag_78\n      jump\t// in\n    tag_77:\n      mload(0x40)\n      dup1\n      swap2\n      sub\n      swap1\n      revert\n    tag_76:\n        /* \"contracts/Hostel.sol\":859:860  0 */\n      0x00\n        /* \"contracts/Hostel.sol\":842:847  _name */\n      dup5\n        /* \"contracts/Hostel.sol\":836:855  bytes(_name).length */\n      mload\n        /* \"contracts/Hostel.sol\":836:860  bytes(_name).length != 0 */\n      sub\n        /* \"contracts/Hostel.sol\":828:882  require(bytes(_name).length != 0, \"Specify your name\") */\n      tag_79\n      jumpi\n      mload(0x40)\n      0x08c379a000000000000000000000000000000000000000000000000000000000\n      dup2\n      mstore\n      0x04\n      add\n      tag_80\n      swap1\n      tag_81\n      jump\t// in\n    tag_80:\n      mload(0x40)\n      dup1\n      swap2\n      sub\n      swap1\n      revert\n    tag_79:\n        /* \"contracts/Hostel.sol\":926:927  0 */\n      0x00\n        /* \"contracts/Hostel.sol\":906:914  _surname */\n      dup4\n        /* \"contracts/Hostel.sol\":900:922  bytes(_surname).length */\n      mload\n        /* \"contracts/Hostel.sol\":900:927  bytes(_surname).length != 0 */\n      sub\n        /* \"contracts/Hostel.sol\":892:952  require(bytes(_surname).length != 0, \"Specify your surname\") */\n      tag_82\n      jumpi\n      mload(0x40)\n      0x08c379a000000000000000000000000000000000000000000000000000000000\n      dup2\n      mstore\n      0x04\n      add\n      tag_83\n      swap1\n      tag_84\n      jump\t// in\n    tag_83:\n      mload(0x40)\n      dup1\n      swap2\n      sub\n      swap1\n      revert\n    tag_82:\n        /* \"contracts/Hostel.sol\":998:1011  _numberOfDays */\n      dup2\n        /* \"contracts/Hostel.sol\":983:995  RoomPriceWei */\n      sload(0x03)\n        /* \"contracts/Hostel.sol\":983:1011  RoomPriceWei * _numberOfDays */\n      tag_85\n      swap2\n      swap1\n      tag_86\n      jump\t// in\n    tag_85:\n        /* \"contracts/Hostel.sol\":970:979  msg.value */\n      callvalue\n        /* \"contracts/Hostel.sol\":970:1011  msg.value >= RoomPriceWei * _numberOfDays */\n      lt\n      iszero\n        /* \"contracts/Hostel.sol\":962:1045  require(msg.value >= RoomPriceWei * _numberOfDays, \"You haven't sent enough ether\") */\n      tag_87\n      jumpi\n      mload(0x40)\n      0x08c379a000000000000000000000000000000000000000000000000000000000\n      dup2\n      mstore\n      0x04\n      add\n      tag_88\n      swap1\n      tag_89\n      jump\t// in\n    tag_88:\n      mload(0x40)\n      dup1\n      swap2\n      sub\n      swap1\n      revert\n    tag_87:\n        /* \"contracts/Hostel.sol\":1092:1102  msg.sender */\n      caller\n        /* \"contracts/Hostel.sol\":1056:1076  RoomNumberToCustomer */\n      0x01\n        /* \"contracts/Hostel.sol\":1056:1089  RoomNumberToCustomer[_roomNumber] */\n      0x00\n        /* \"contracts/Hostel.sol\":1077:1088  _roomNumber */\n      dup8\n        /* \"contracts/Hostel.sol\":1056:1089  RoomNumberToCustomer[_roomNumber] */\n      0xff\n      and\n      0xff\n      and\n      dup2\n      mstore\n      0x20\n      add\n      swap1\n      dup2\n      mstore\n      0x20\n      add\n      0x00\n      keccak256\n      0x00\n        /* \"contracts/Hostel.sol\":1056:1102  RoomNumberToCustomer[_roomNumber] = msg.sender */\n      0x0100\n      exp\n      dup2\n      sload\n      dup2\n      0xffffffffffffffffffffffffffffffffffffffff\n      mul\n      not\n      and\n      swap1\n      dup4\n      0xffffffffffffffffffffffffffffffffffffffff\n      and\n      mul\n      or\n      swap1\n      sstore\n      pop\n        /* \"contracts/Hostel.sol\":1176:1182  1 days */\n      0x015180\n        /* \"contracts/Hostel.sol\":1160:1173  _numberOfDays */\n      dup3\n        /* \"contracts/Hostel.sol\":1160:1182  _numberOfDays * 1 days */\n      tag_90\n      swap2\n      swap1\n      tag_86\n      jump\t// in\n    tag_90:\n        /* \"contracts/Hostel.sol\":1142:1157  block.timestamp */\n      timestamp\n        /* \"contracts/Hostel.sol\":1142:1182  block.timestamp + _numberOfDays * 1 days */\n      tag_91\n      swap2\n      swap1\n      tag_92\n      jump\t// in\n    tag_91:\n        /* \"contracts/Hostel.sol\":1112:1126  RoomExpireTime */\n      0x02\n        /* \"contracts/Hostel.sol\":1112:1139  RoomExpireTime[_roomNumber] */\n      0x00\n        /* \"contracts/Hostel.sol\":1127:1138  _roomNumber */\n      dup8\n        /* \"contracts/Hostel.sol\":1112:1139  RoomExpireTime[_roomNumber] */\n      0xff\n      and\n      0xff\n      and\n      dup2\n      mstore\n      0x20\n      add\n      swap1\n      dup2\n      mstore\n      0x20\n      add\n      0x00\n      keccak256\n        /* \"contracts/Hostel.sol\":1112:1182  RoomExpireTime[_roomNumber] = block.timestamp + _numberOfDays * 1 days */\n      dup2\n      swap1\n      sstore\n      pop\n        /* \"contracts/Hostel.sol\":687:1189  {... */\n      pop\n        /* \"contracts/Hostel.sol\":570:1189  function RentRoom(uint8 _roomNumber, string memory _name, string memory _surname, uint _numberOfDays) payable public {... */\n      pop\n      pop\n      pop\n      pop\n      jump\t// out\n        /* \"contracts/Hostel.sol\":189:209  address public owner */\n    tag_41:\n      0x00\n      dup1\n      sload\n      swap1\n      0x0100\n      exp\n      swap1\n      div\n      0xffffffffffffffffffffffffffffffffffffffff\n      and\n      dup2\n      jump\t// out\n        /* \"contracts/Hostel.sol\":1904:2345  function removeExpiredCustomersFromRooms() public {... */\n    tag_46:\n        /* \"contracts/Hostel.sol\":1964:1980  uint currentTime */\n      0x00\n        /* \"contracts/Hostel.sol\":1983:1998  block.timestamp */\n      timestamp\n        /* \"contracts/Hostel.sol\":1964:1998  uint currentTime = block.timestamp */\n      swap1\n      pop\n        /* \"contracts/Hostel.sol\":2021:2032  uint8 index */\n      0x00\n        /* \"contracts/Hostel.sol\":2035:2036  1 */\n      0x01\n        /* \"contracts/Hostel.sol\":2021:2036  uint8 index = 1 */\n      swap1\n      pop\n        /* \"contracts/Hostel.sol\":2017:2339  for(uint8 index = 1;index<=255;index++) {... */\n    tag_94:\n        /* \"contracts/Hostel.sol\":2044:2047  255 */\n      0xff\n        /* \"contracts/Hostel.sol\":2037:2042  index */\n      dup2\n        /* \"contracts/Hostel.sol\":2037:2047  index<=255 */\n      0xff\n      and\n      gt\n        /* \"contracts/Hostel.sol\":2017:2339  for(uint8 index = 1;index<=255;index++) {... */\n      tag_95\n      jumpi\n        /* \"contracts/Hostel.sol\":2071:2094  uint roomExpirationTime */\n      0x00\n        /* \"contracts/Hostel.sol\":2097:2111  RoomExpireTime */\n      0x02\n        /* \"contracts/Hostel.sol\":2097:2118  RoomExpireTime[index] */\n      0x00\n        /* \"contracts/Hostel.sol\":2112:2117  index */\n      dup4\n        /* \"contracts/Hostel.sol\":2097:2118  RoomExpireTime[index] */\n      0xff\n      and\n      0xff\n      and\n      dup2\n      mstore\n      0x20\n      add\n      swap1\n      dup2\n      mstore\n      0x20\n      add\n      0x00\n      keccak256\n      sload\n        /* \"contracts/Hostel.sol\":2071:2118  uint roomExpirationTime = RoomExpireTime[index] */\n      swap1\n      pop\n        /* \"contracts/Hostel.sol\":2170:2181  currentTime */\n      dup3\n        /* \"contracts/Hostel.sol\":2149:2167  roomExpirationTime */\n      dup2\n        /* \"contracts/Hostel.sol\":2149:2181  roomExpirationTime < currentTime */\n      lt\n        /* \"contracts/Hostel.sol\":2148:2211  (roomExpirationTime < currentTime) && (roomExpirationTime != 0) */\n      dup1\n      iszero\n      tag_97\n      jumpi\n      pop\n        /* \"contracts/Hostel.sol\":2209:2210  0 */\n      0x00\n        /* \"contracts/Hostel.sol\":2187:2205  roomExpirationTime */\n      dup2\n        /* \"contracts/Hostel.sol\":2187:2210  roomExpirationTime != 0 */\n      eq\n      iszero\n        /* \"contracts/Hostel.sol\":2148:2211  (roomExpirationTime < currentTime) && (roomExpirationTime != 0) */\n    tag_97:\n        /* \"contracts/Hostel.sol\":2145:2329  if((roomExpirationTime < currentTime) && (roomExpirationTime != 0)) {... */\n      iszero\n      tag_98\n      jumpi\n        /* \"contracts/Hostel.sol\":2255:2256  0 */\n      0x00\n        /* \"contracts/Hostel.sol\":2231:2245  RoomExpireTime */\n      0x02\n        /* \"contracts/Hostel.sol\":2231:2252  RoomExpireTime[index] */\n      0x00\n        /* \"contracts/Hostel.sol\":2246:2251  index */\n      dup5\n        /* \"contracts/Hostel.sol\":2231:2252  RoomExpireTime[index] */\n      0xff\n      and\n      0xff\n      and\n      dup2\n      mstore\n      0x20\n      add\n      swap1\n      dup2\n      mstore\n      0x20\n      add\n      0x00\n      keccak256\n        /* \"contracts/Hostel.sol\":2231:2256  RoomExpireTime[index] = 0 */\n      dup2\n      swap1\n      sstore\n      pop\n        /* \"contracts/Hostel.sol\":2312:2313  0 */\n      0x00\n        /* \"contracts/Hostel.sol\":2274:2294  RoomNumberToCustomer */\n      0x01\n        /* \"contracts/Hostel.sol\":2274:2301  RoomNumberToCustomer[index] */\n      0x00\n        /* \"contracts/Hostel.sol\":2295:2300  index */\n      dup5\n        /* \"contracts/Hostel.sol\":2274:2301  RoomNumberToCustomer[index] */\n      0xff\n      and\n      0xff\n      and\n      dup2\n      mstore\n      0x20\n      add\n      swap1\n      dup2\n      mstore\n      0x20\n      add\n      0x00\n      keccak256\n      0x00\n        /* \"contracts/Hostel.sol\":2274:2314  RoomNumberToCustomer[index] = address(0) */\n      0x0100\n      exp\n      dup2\n      sload\n      dup2\n      0xffffffffffffffffffffffffffffffffffffffff\n      mul\n      not\n      and\n      swap1\n      dup4\n      0xffffffffffffffffffffffffffffffffffffffff\n      and\n      mul\n      or\n      swap1\n      sstore\n      pop\n        /* \"contracts/Hostel.sol\":2145:2329  if((roomExpirationTime < currentTime) && (roomExpirationTime != 0)) {... */\n    tag_98:\n        /* \"contracts/Hostel.sol\":2057:2339  {... */\n      pop\n        /* \"contracts/Hostel.sol\":2048:2055  index++ */\n      dup1\n      dup1\n      tag_99\n      swap1\n      tag_100\n      jump\t// in\n    tag_99:\n      swap2\n      pop\n      pop\n        /* \"contracts/Hostel.sol\":2017:2339  for(uint8 index = 1;index<=255;index++) {... */\n      jump(tag_94)\n    tag_95:\n      pop\n        /* \"contracts/Hostel.sol\":1954:2345  {... */\n      pop\n        /* \"contracts/Hostel.sol\":1904:2345  function removeExpiredCustomersFromRooms() public {... */\n      jump\t// out\n        /* \"contracts/Hostel.sol\":1195:1338  function isRoomAvailable(uint8 _RoomNumber) public view returns(bool) {... */\n    tag_50:\n        /* \"contracts/Hostel.sol\":1259:1263  bool */\n      0x00\n        /* \"contracts/Hostel.sol\":1328:1329  0 */\n      dup1\n        /* \"contracts/Hostel.sol\":1283:1330  RoomNumberToCustomer[_RoomNumber] == address(0) */\n      0xffffffffffffffffffffffffffffffffffffffff\n      and\n        /* \"contracts/Hostel.sol\":1283:1303  RoomNumberToCustomer */\n      0x01\n        /* \"contracts/Hostel.sol\":1283:1316  RoomNumberToCustomer[_RoomNumber] */\n      0x00\n        /* \"contracts/Hostel.sol\":1304:1315  _RoomNumber */\n      dup5\n        /* \"contracts/Hostel.sol\":1283:1316  RoomNumberToCustomer[_RoomNumber] */\n      0xff\n      and\n      0xff\n      and\n      dup2\n      mstore\n      0x20\n      add\n      swap1\n      dup2\n      mstore\n      0x20\n      add\n      0x00\n      keccak256\n      0x00\n      swap1\n      sload\n      swap1\n      0x0100\n      exp\n      swap1\n      div\n      0xffffffffffffffffffffffffffffffffffffffff\n      and\n        /* \"contracts/Hostel.sol\":1283:1330  RoomNumberToCustomer[_RoomNumber] == address(0) */\n      0xffffffffffffffffffffffffffffffffffffffff\n      and\n      eq\n        /* \"contracts/Hostel.sol\":1275:1331  return (RoomNumberToCustomer[_RoomNumber] == address(0)) */\n      swap1\n      pop\n        /* \"contracts/Hostel.sol\":1195:1338  function isRoomAvailable(uint8 _RoomNumber) public view returns(bool) {... */\n      swap2\n      swap1\n      pop\n      jump\t// out\n        /* \"contracts/Hostel.sol\":1679:1766  function getRoomsPrice() public view returns(uint) {... */\n    tag_55:\n        /* \"contracts/Hostel.sol\":1724:1728  uint */\n      0x00\n        /* \"contracts/Hostel.sol\":1747:1759  RoomPriceWei */\n      sload(0x03)\n        /* \"contracts/Hostel.sol\":1740:1759  return RoomPriceWei */\n      swap1\n      pop\n        /* \"contracts/Hostel.sol\":1679:1766  function getRoomsPrice() public view returns(uint) {... */\n      swap1\n      jump\t// out\n        /* \"contracts/Hostel.sol\":1458:1569  function withdrawAll(address payable _to) public onlyOwner {... */\n    tag_61:\n        /* \"contracts/Hostel.sol\":500:505  owner */\n      0x00\n      dup1\n      sload\n      swap1\n      0x0100\n      exp\n      swap1\n      div\n      0xffffffffffffffffffffffffffffffffffffffff\n      and\n        /* \"contracts/Hostel.sol\":486:505  msg.sender == owner */\n      0xffffffffffffffffffffffffffffffffffffffff\n      and\n        /* \"contracts/Hostel.sol\":486:496  msg.sender */\n      caller\n        /* \"contracts/Hostel.sol\":486:505  msg.sender == owner */\n      0xffffffffffffffffffffffffffffffffffffffff\n      and\n      eq\n        /* \"contracts/Hostel.sol\":478:546  require(msg.sender == owner, \"Only owner can execute this function\") */\n      tag_104\n      jumpi\n      mload(0x40)\n      0x08c379a000000000000000000000000000000000000000000000000000000000\n      dup2\n      mstore\n      0x04\n      add\n      tag_105\n      swap1\n      tag_70\n      jump\t// in\n    tag_105:\n      mload(0x40)\n      dup1\n      swap2\n      sub\n      swap1\n      revert\n    tag_104:\n        /* \"contracts/Hostel.sol\":1527:1530  _to */\n      dup1\n        /* \"contracts/Hostel.sol\":1527:1539  _to.transfer */\n      0xffffffffffffffffffffffffffffffffffffffff\n      and\n        /* \"contracts/Hostel.sol\":1527:1562  _to.transfer(address(this).balance) */\n      0x08fc\n        /* \"contracts/Hostel.sol\":1540:1561  address(this).balance */\n      selfbalance\n        /* \"contracts/Hostel.sol\":1527:1562  _to.transfer(address(this).balance) */\n      swap1\n      dup2\n      iszero\n      mul\n      swap1\n      mload(0x40)\n      0x00\n      mload(0x40)\n      dup1\n      dup4\n      sub\n      dup2\n      dup6\n      dup9\n      dup9\n      call\n      swap4\n      pop\n      pop\n      pop\n      pop\n      iszero\n      dup1\n      iszero\n      tag_108\n      jumpi\n      returndatasize\n      0x00\n      dup1\n      returndatacopy\n      revert(0x00, returndatasize)\n    tag_108:\n      pop\n        /* \"contracts/Hostel.sol\":1458:1569  function withdrawAll(address payable _to) public onlyOwner {... */\n      pop\n      jump\t// out\n        /* \"contracts/Hostel.sol\":215:268  mapping(uint8 => address) public RoomNumberToCustomer */\n    tag_65:\n      mstore(0x20, 0x01)\n      dup1\n      0x00\n      mstore\n      keccak256(0x00, 0x40)\n      0x00\n      swap2\n      pop\n      sload\n      swap1\n      0x0100\n      exp\n      swap1\n      div\n      0xffffffffffffffffffffffffffffffffffffffff\n      and\n      dup2\n      jump\t// out\n        /* \"#utility.yul\":7:82   */\n    tag_109:\n        /* \"#utility.yul\":40:46   */\n      0x00\n        /* \"#utility.yul\":73:75   */\n      0x40\n        /* \"#utility.yul\":67:76   */\n      mload\n        /* \"#utility.yul\":57:76   */\n      swap1\n      pop\n        /* \"#utility.yul\":7:82   */\n      swap1\n      jump\t// out\n        /* \"#utility.yul\":88:205   */\n    tag_110:\n        /* \"#utility.yul\":197:198   */\n      0x00\n        /* \"#utility.yul\":194:195   */\n      dup1\n        /* \"#utility.yul\":187:199   */\n      revert\n        /* \"#utility.yul\":211:328   */\n    tag_111:\n        /* \"#utility.yul\":320:321   */\n      0x00\n        /* \"#utility.yul\":317:318   */\n      dup1\n        /* \"#utility.yul\":310:322   */\n      revert\n        /* \"#utility.yul\":334:411   */\n    tag_112:\n        /* \"#utility.yul\":371:378   */\n      0x00\n        /* \"#utility.yul\":400:405   */\n      dup2\n        /* \"#utility.yul\":389:405   */\n      swap1\n      pop\n        /* \"#utility.yul\":334:411   */\n      swap2\n      swap1\n      pop\n      jump\t// out\n        /* \"#utility.yul\":417:539   */\n    tag_113:\n        /* \"#utility.yul\":490:514   */\n      tag_155\n        /* \"#utility.yul\":508:513   */\n      dup2\n        /* \"#utility.yul\":490:514   */\n      tag_112\n      jump\t// in\n    tag_155:\n        /* \"#utility.yul\":483:488   */\n      dup2\n        /* \"#utility.yul\":480:515   */\n      eq\n        /* \"#utility.yul\":470:533   */\n      tag_156\n      jumpi\n        /* \"#utility.yul\":529:530   */\n      0x00\n        /* \"#utility.yul\":526:527   */\n      dup1\n        /* \"#utility.yul\":519:531   */\n      revert\n        /* \"#utility.yul\":470:533   */\n    tag_156:\n        /* \"#utility.yul\":417:539   */\n      pop\n      jump\t// out\n        /* \"#utility.yul\":545:684   */\n    tag_114:\n        /* \"#utility.yul\":591:596   */\n      0x00\n        /* \"#utility.yul\":629:635   */\n      dup2\n        /* \"#utility.yul\":616:636   */\n      calldataload\n        /* \"#utility.yul\":607:636   */\n      swap1\n      pop\n        /* \"#utility.yul\":645:678   */\n      tag_158\n        /* \"#utility.yul\":672:677   */\n      dup2\n        /* \"#utility.yul\":645:678   */\n      tag_113\n      jump\t// in\n    tag_158:\n        /* \"#utility.yul\":545:684   */\n      swap3\n      swap2\n      pop\n      pop\n      jump\t// out\n        /* \"#utility.yul\":690:1019   */\n    tag_17:\n        /* \"#utility.yul\":749:755   */\n      0x00\n        /* \"#utility.yul\":798:800   */\n      0x20\n        /* \"#utility.yul\":786:795   */\n      dup3\n        /* \"#utility.yul\":777:784   */\n      dup5\n        /* \"#utility.yul\":773:796   */\n      sub\n        /* \"#utility.yul\":769:801   */\n      slt\n        /* \"#utility.yul\":766:885   */\n      iszero\n      tag_160\n      jumpi\n        /* \"#utility.yul\":804:883   */\n      tag_161\n      tag_110\n      jump\t// in\n    tag_161:\n        /* \"#utility.yul\":766:885   */\n    tag_160:\n        /* \"#utility.yul\":924:925   */\n      0x00\n        /* \"#utility.yul\":949:1002   */\n      tag_162\n        /* \"#utility.yul\":994:1001   */\n      dup5\n        /* \"#utility.yul\":985:991   */\n      dup3\n        /* \"#utility.yul\":974:983   */\n      dup6\n        /* \"#utility.yul\":970:992   */\n      add\n        /* \"#utility.yul\":949:1002   */\n      tag_114\n      jump\t// in\n    tag_162:\n        /* \"#utility.yul\":939:1002   */\n      swap2\n      pop\n        /* \"#utility.yul\":895:1012   */\n      pop\n        /* \"#utility.yul\":690:1019   */\n      swap3\n      swap2\n      pop\n      pop\n      jump\t// out\n        /* \"#utility.yul\":1025:1111   */\n    tag_115:\n        /* \"#utility.yul\":1060:1067   */\n      0x00\n        /* \"#utility.yul\":1100:1104   */\n      0xff\n        /* \"#utility.yul\":1093:1098   */\n      dup3\n        /* \"#utility.yul\":1089:1105   */\n      and\n        /* \"#utility.yul\":1078:1105   */\n      swap1\n      pop\n        /* \"#utility.yul\":1025:1111   */\n      swap2\n      swap1\n      pop\n      jump\t// out\n        /* \"#utility.yul\":1117:1235   */\n    tag_116:\n        /* \"#utility.yul\":1188:1210   */\n      tag_165\n        /* \"#utility.yul\":1204:1209   */\n      dup2\n        /* \"#utility.yul\":1188:1210   */\n      tag_115\n      jump\t// in\n    tag_165:\n        /* \"#utility.yul\":1181:1186   */\n      dup2\n        /* \"#utility.yul\":1178:1211   */\n      eq\n        /* \"#utility.yul\":1168:1229   */\n      tag_166\n      jumpi\n        /* \"#utility.yul\":1225:1226   */\n      0x00\n        /* \"#utility.yul\":1222:1223   */\n      dup1\n        /* \"#utility.yul\":1215:1227   */\n      revert\n        /* \"#utility.yul\":1168:1229   */\n    tag_166:\n        /* \"#utility.yul\":1117:1235   */\n      pop\n      jump\t// out\n        /* \"#utility.yul\":1241:1376   */\n    tag_117:\n        /* \"#utility.yul\":1285:1290   */\n      0x00\n        /* \"#utility.yul\":1323:1329   */\n      dup2\n        /* \"#utility.yul\":1310:1330   */\n      calldataload\n        /* \"#utility.yul\":1301:1330   */\n      swap1\n      pop\n        /* \"#utility.yul\":1339:1370   */\n      tag_168\n        /* \"#utility.yul\":1364:1369   */\n      dup2\n        /* \"#utility.yul\":1339:1370   */\n      tag_116\n      jump\t// in\n    tag_168:\n        /* \"#utility.yul\":1241:1376   */\n      swap3\n      swap2\n      pop\n      pop\n      jump\t// out\n        /* \"#utility.yul\":1382:1707   */\n    tag_22:\n        /* \"#utility.yul\":1439:1445   */\n      0x00\n        /* \"#utility.yul\":1488:1490   */\n      0x20\n        /* \"#utility.yul\":1476:1485   */\n      dup3\n        /* \"#utility.yul\":1467:1474   */\n      dup5\n        /* \"#utility.yul\":1463:1486   */\n      sub\n        /* \"#utility.yul\":1459:1491   */\n      slt\n        /* \"#utility.yul\":1456:1575   */\n      iszero\n      tag_170\n      jumpi\n        /* \"#utility.yul\":1494:1573   */\n      tag_171\n      tag_110\n      jump\t// in\n    tag_171:\n        /* \"#utility.yul\":1456:1575   */\n    tag_170:\n        /* \"#utility.yul\":1614:1615   */\n      0x00\n        /* \"#utility.yul\":1639:1690   */\n      tag_172\n        /* \"#utility.yul\":1682:1689   */\n      dup5\n        /* \"#utility.yul\":1673:1679   */\n      dup3\n        /* \"#utility.yul\":1662:1671   */\n      dup6\n        /* \"#utility.yul\":1658:1680   */\n      add\n        /* \"#utility.yul\":1639:1690   */\n      tag_117\n      jump\t// in\n    tag_172:\n        /* \"#utility.yul\":1629:1690   */\n      swap2\n      pop\n        /* \"#utility.yul\":1585:1700   */\n      pop\n        /* \"#utility.yul\":1382:1707   */\n      swap3\n      swap2\n      pop\n      pop\n      jump\t// out\n        /* \"#utility.yul\":1713:1831   */\n    tag_118:\n        /* \"#utility.yul\":1800:1824   */\n      tag_174\n        /* \"#utility.yul\":1818:1823   */\n      dup2\n        /* \"#utility.yul\":1800:1824   */\n      tag_112\n      jump\t// in\n    tag_174:\n        /* \"#utility.yul\":1795:1798   */\n      dup3\n        /* \"#utility.yul\":1788:1825   */\n      mstore\n        /* \"#utility.yul\":1713:1831   */\n      pop\n      pop\n      jump\t// out\n        /* \"#utility.yul\":1837:2059   */\n    tag_25:\n        /* \"#utility.yul\":1930:1934   */\n      0x00\n        /* \"#utility.yul\":1968:1970   */\n      0x20\n        /* \"#utility.yul\":1957:1966   */\n      dup3\n        /* \"#utility.yul\":1953:1971   */\n      add\n        /* \"#utility.yul\":1945:1971   */\n      swap1\n      pop\n        /* \"#utility.yul\":1981:2052   */\n      tag_176\n        /* \"#utility.yul\":2049:2050   */\n      0x00\n        /* \"#utility.yul\":2038:2047   */\n      dup4\n        /* \"#utility.yul\":2034:2051   */\n      add\n        /* \"#utility.yul\":2025:2031   */\n      dup5\n        /* \"#utility.yul\":1981:2052   */\n      tag_118\n      jump\t// in\n    tag_176:\n        /* \"#utility.yul\":1837:2059   */\n      swap3\n      swap2\n      pop\n      pop\n      jump\t// out\n        /* \"#utility.yul\":2065:2182   */\n    tag_119:\n        /* \"#utility.yul\":2174:2175   */\n      0x00\n        /* \"#utility.yul\":2171:2172   */\n      dup1\n        /* \"#utility.yul\":2164:2176   */\n      revert\n        /* \"#utility.yul\":2188:2305   */\n    tag_120:\n        /* \"#utility.yul\":2297:2298   */\n      0x00\n        /* \"#utility.yul\":2294:2295   */\n      dup1\n        /* \"#utility.yul\":2287:2299   */\n      revert\n        /* \"#utility.yul\":2311:2413   */\n    tag_121:\n        /* \"#utility.yul\":2352:2358   */\n      0x00\n        /* \"#utility.yul\":2403:2405   */\n      0x1f\n        /* \"#utility.yul\":2399:2406   */\n      not\n        /* \"#utility.yul\":2394:2396   */\n      0x1f\n        /* \"#utility.yul\":2387:2392   */\n      dup4\n        /* \"#utility.yul\":2383:2397   */\n      add\n        /* \"#utility.yul\":2379:2407   */\n      and\n        /* \"#utility.yul\":2369:2407   */\n      swap1\n      pop\n        /* \"#utility.yul\":2311:2413   */\n      swap2\n      swap1\n      pop\n      jump\t// out\n        /* \"#utility.yul\":2419:2599   */\n    tag_122:\n        /* \"#utility.yul\":2467:2544   */\n      0x4e487b7100000000000000000000000000000000000000000000000000000000\n        /* \"#utility.yul\":2464:2465   */\n      0x00\n        /* \"#utility.yul\":2457:2545   */\n      mstore\n        /* \"#utility.yul\":2564:2568   */\n      0x41\n        /* \"#utility.yul\":2561:2562   */\n      0x04\n        /* \"#utility.yul\":2554:2569   */\n      mstore\n        /* \"#utility.yul\":2588:2592   */\n      0x24\n        /* \"#utility.yul\":2585:2586   */\n      0x00\n        /* \"#utility.yul\":2578:2593   */\n      revert\n        /* \"#utility.yul\":2605:2886   */\n    tag_123:\n        /* \"#utility.yul\":2688:2715   */\n      tag_182\n        /* \"#utility.yul\":2710:2714   */\n      dup3\n        /* \"#utility.yul\":2688:2715   */\n      tag_121\n      jump\t// in\n    tag_182:\n        /* \"#utility.yul\":2680:2686   */\n      dup2\n        /* \"#utility.yul\":2676:2716   */\n      add\n        /* \"#utility.yul\":2818:2824   */\n      dup2\n        /* \"#utility.yul\":2806:2816   */\n      dup2\n        /* \"#utility.yul\":2803:2825   */\n      lt\n        /* \"#utility.yul\":2782:2800   */\n      0xffffffffffffffff\n        /* \"#utility.yul\":2770:2780   */\n      dup3\n        /* \"#utility.yul\":2767:2801   */\n      gt\n        /* \"#utility.yul\":2764:2826   */\n      or\n        /* \"#utility.yul\":2761:2849   */\n      iszero\n      tag_183\n      jumpi\n        /* \"#utility.yul\":2829:2847   */\n      tag_184\n      tag_122\n      jump\t// in\n    tag_184:\n        /* \"#utility.yul\":2761:2849   */\n    tag_183:\n        /* \"#utility.yul\":2869:2879   */\n      dup1\n        /* \"#utility.yul\":2865:2867   */\n      0x40\n        /* \"#utility.yul\":2858:2880   */\n      mstore\n        /* \"#utility.yul\":2648:2886   */\n      pop\n        /* \"#utility.yul\":2605:2886   */\n      pop\n      pop\n      jump\t// out\n        /* \"#utility.yul\":2892:3021   */\n    tag_124:\n        /* \"#utility.yul\":2926:2932   */\n      0x00\n        /* \"#utility.yul\":2953:2973   */\n      tag_186\n      tag_109\n      jump\t// in\n    tag_186:\n        /* \"#utility.yul\":2943:2973   */\n      swap1\n      pop\n        /* \"#utility.yul\":2982:3015   */\n      tag_187\n        /* \"#utility.yul\":3010:3014   */\n      dup3\n        /* \"#utility.yul\":3002:3008   */\n      dup3\n        /* \"#utility.yul\":2982:3015   */\n      tag_123\n      jump\t// in\n    tag_187:\n        /* \"#utility.yul\":2892:3021   */\n      swap2\n      swap1\n      pop\n      jump\t// out\n        /* \"#utility.yul\":3027:3335   */\n    tag_125:\n        /* \"#utility.yul\":3089:3093   */\n      0x00\n        /* \"#utility.yul\":3179:3197   */\n      0xffffffffffffffff\n        /* \"#utility.yul\":3171:3177   */\n      dup3\n        /* \"#utility.yul\":3168:3198   */\n      gt\n        /* \"#utility.yul\":3165:3221   */\n      iszero\n      tag_189\n      jumpi\n        /* \"#utility.yul\":3201:3219   */\n      tag_190\n      tag_122\n      jump\t// in\n    tag_190:\n        /* \"#utility.yul\":3165:3221   */\n    tag_189:\n        /* \"#utility.yul\":3239:3268   */\n      tag_191\n        /* \"#utility.yul\":3261:3267   */\n      dup3\n        /* \"#utility.yul\":3239:3268   */\n      tag_121\n      jump\t// in\n    tag_191:\n        /* \"#utility.yul\":3231:3268   */\n      swap1\n      pop\n        /* \"#utility.yul\":3323:3327   */\n      0x20\n        /* \"#utility.yul\":3317:3321   */\n      dup2\n        /* \"#utility.yul\":3313:3328   */\n      add\n        /* \"#utility.yul\":3305:3328   */\n      swap1\n      pop\n        /* \"#utility.yul\":3027:3335   */\n      swap2\n      swap1\n      pop\n      jump\t// out\n        /* \"#utility.yul\":3341:3487   */\n    tag_126:\n        /* \"#utility.yul\":3438:3444   */\n      dup3\n        /* \"#utility.yul\":3433:3436   */\n      dup2\n        /* \"#utility.yul\":3428:3431   */\n      dup4\n        /* \"#utility.yul\":3415:3445   */\n      calldatacopy\n        /* \"#utility.yul\":3479:3480   */\n      0x00\n        /* \"#utility.yul\":3470:3476   */\n      dup4\n        /* \"#utility.yul\":3465:3468   */\n      dup4\n        /* \"#utility.yul\":3461:3477   */\n      add\n        /* \"#utility.yul\":3454:3481   */\n      mstore\n        /* \"#utility.yul\":3341:3487   */\n      pop\n      pop\n      pop\n      jump\t// out\n        /* \"#utility.yul\":3493:3918   */\n    tag_127:\n        /* \"#utility.yul\":3571:3576   */\n      0x00\n        /* \"#utility.yul\":3596:3662   */\n      tag_194\n        /* \"#utility.yul\":3612:3661   */\n      tag_195\n        /* \"#utility.yul\":3654:3660   */\n      dup5\n        /* \"#utility.yul\":3612:3661   */\n      tag_125\n      jump\t// in\n    tag_195:\n        /* \"#utility.yul\":3596:3662   */\n      tag_124\n      jump\t// in\n    tag_194:\n        /* \"#utility.yul\":3587:3662   */\n      swap1\n      pop\n        /* \"#utility.yul\":3685:3691   */\n      dup3\n        /* \"#utility.yul\":3678:3683   */\n      dup2\n        /* \"#utility.yul\":3671:3692   */\n      mstore\n        /* \"#utility.yul\":3723:3727   */\n      0x20\n        /* \"#utility.yul\":3716:3721   */\n      dup2\n        /* \"#utility.yul\":3712:3728   */\n      add\n        /* \"#utility.yul\":3761:3764   */\n      dup5\n        /* \"#utility.yul\":3752:3758   */\n      dup5\n        /* \"#utility.yul\":3747:3750   */\n      dup5\n        /* \"#utility.yul\":3743:3759   */\n      add\n        /* \"#utility.yul\":3740:3765   */\n      gt\n        /* \"#utility.yul\":3737:3849   */\n      iszero\n      tag_196\n      jumpi\n        /* \"#utility.yul\":3768:3847   */\n      tag_197\n      tag_120\n      jump\t// in\n    tag_197:\n        /* \"#utility.yul\":3737:3849   */\n    tag_196:\n        /* \"#utility.yul\":3858:3912   */\n      tag_198\n        /* \"#utility.yul\":3905:3911   */\n      dup5\n        /* \"#utility.yul\":3900:3903   */\n      dup3\n        /* \"#utility.yul\":3895:3898   */\n      dup6\n        /* \"#utility.yul\":3858:3912   */\n      tag_126\n      jump\t// in\n    tag_198:\n        /* \"#utility.yul\":3577:3918   */\n      pop\n        /* \"#utility.yul\":3493:3918   */\n      swap4\n      swap3\n      pop\n      pop\n      pop\n      jump\t// out\n        /* \"#utility.yul\":3938:4278   */\n    tag_128:\n        /* \"#utility.yul\":3994:3999   */\n      0x00\n        /* \"#utility.yul\":4043:4046   */\n      dup3\n        /* \"#utility.yul\":4036:4040   */\n      0x1f\n        /* \"#utility.yul\":4028:4034   */\n      dup4\n        /* \"#utility.yul\":4024:4041   */\n      add\n        /* \"#utility.yul\":4020:4047   */\n      slt\n        /* \"#utility.yul\":4010:4132   */\n      tag_200\n      jumpi\n        /* \"#utility.yul\":4051:4130   */\n      tag_201\n      tag_119\n      jump\t// in\n    tag_201:\n        /* \"#utility.yul\":4010:4132   */\n    tag_200:\n        /* \"#utility.yul\":4168:4174   */\n      dup2\n        /* \"#utility.yul\":4155:4175   */\n      calldataload\n        /* \"#utility.yul\":4193:4272   */\n      tag_202\n        /* \"#utility.yul\":4268:4271   */\n      dup5\n        /* \"#utility.yul\":4260:4266   */\n      dup3\n        /* \"#utility.yul\":4253:4257   */\n      0x20\n        /* \"#utility.yul\":4245:4251   */\n      dup7\n        /* \"#utility.yul\":4241:4258   */\n      add\n        /* \"#utility.yul\":4193:4272   */\n      tag_127\n      jump\t// in\n    tag_202:\n        /* \"#utility.yul\":4184:4272   */\n      swap2\n      pop\n        /* \"#utility.yul\":4000:4278   */\n      pop\n        /* \"#utility.yul\":3938:4278   */\n      swap3\n      swap2\n      pop\n      pop\n      jump\t// out\n        /* \"#utility.yul\":4284:5405   */\n    tag_37:\n        /* \"#utility.yul\":4388:4394   */\n      0x00\n        /* \"#utility.yul\":4396:4402   */\n      dup1\n        /* \"#utility.yul\":4404:4410   */\n      0x00\n        /* \"#utility.yul\":4412:4418   */\n      dup1\n        /* \"#utility.yul\":4461:4464   */\n      0x80\n        /* \"#utility.yul\":4449:4458   */\n      dup6\n        /* \"#utility.yul\":4440:4447   */\n      dup8\n        /* \"#utility.yul\":4436:4459   */\n      sub\n        /* \"#utility.yul\":4432:4465   */\n      slt\n        /* \"#utility.yul\":4429:4549   */\n      iszero\n      tag_204\n      jumpi\n        /* \"#utility.yul\":4468:4547   */\n      tag_205\n      tag_110\n      jump\t// in\n    tag_205:\n        /* \"#utility.yul\":4429:4549   */\n    tag_204:\n        /* \"#utility.yul\":4588:4589   */\n      0x00\n        /* \"#utility.yul\":4613:4664   */\n      tag_206\n        /* \"#utility.yul\":4656:4663   */\n      dup8\n        /* \"#utility.yul\":4647:4653   */\n      dup3\n        /* \"#utility.yul\":4636:4645   */\n      dup9\n        /* \"#utility.yul\":4632:4654   */\n      add\n        /* \"#utility.yul\":4613:4664   */\n      tag_117\n      jump\t// in\n    tag_206:\n        /* \"#utility.yul\":4603:4664   */\n      swap5\n      pop\n        /* \"#utility.yul\":4559:4674   */\n      pop\n        /* \"#utility.yul\":4741:4743   */\n      0x20\n        /* \"#utility.yul\":4730:4739   */\n      dup6\n        /* \"#utility.yul\":4726:4744   */\n      add\n        /* \"#utility.yul\":4713:4745   */\n      calldataload\n        /* \"#utility.yul\":4772:4790   */\n      0xffffffffffffffff\n        /* \"#utility.yul\":4764:4770   */\n      dup2\n        /* \"#utility.yul\":4761:4791   */\n      gt\n        /* \"#utility.yul\":4758:4875   */\n      iszero\n      tag_207\n      jumpi\n        /* \"#utility.yul\":4794:4873   */\n      tag_208\n      tag_111\n      jump\t// in\n    tag_208:\n        /* \"#utility.yul\":4758:4875   */\n    tag_207:\n        /* \"#utility.yul\":4899:4962   */\n      tag_209\n        /* \"#utility.yul\":4954:4961   */\n      dup8\n        /* \"#utility.yul\":4945:4951   */\n      dup3\n        /* \"#utility.yul\":4934:4943   */\n      dup9\n        /* \"#utility.yul\":4930:4952   */\n      add\n        /* \"#utility.yul\":4899:4962   */\n      tag_128\n      jump\t// in\n    tag_209:\n        /* \"#utility.yul\":4889:4962   */\n      swap4\n      pop\n        /* \"#utility.yul\":4684:4972   */\n      pop\n        /* \"#utility.yul\":5039:5041   */\n      0x40\n        /* \"#utility.yul\":5028:5037   */\n      dup6\n        /* \"#utility.yul\":5024:5042   */\n      add\n        /* \"#utility.yul\":5011:5043   */\n      calldataload\n        /* \"#utility.yul\":5070:5088   */\n      0xffffffffffffffff\n        /* \"#utility.yul\":5062:5068   */\n      dup2\n        /* \"#utility.yul\":5059:5089   */\n      gt\n        /* \"#utility.yul\":5056:5173   */\n      iszero\n      tag_210\n      jumpi\n        /* \"#utility.yul\":5092:5171   */\n      tag_211\n      tag_111\n      jump\t// in\n    tag_211:\n        /* \"#utility.yul\":5056:5173   */\n    tag_210:\n        /* \"#utility.yul\":5197:5260   */\n      tag_212\n        /* \"#utility.yul\":5252:5259   */\n      dup8\n        /* \"#utility.yul\":5243:5249   */\n      dup3\n        /* \"#utility.yul\":5232:5241   */\n      dup9\n        /* \"#utility.yul\":5228:5250   */\n      add\n        /* \"#utility.yul\":5197:5260   */\n      tag_128\n      jump\t// in\n    tag_212:\n        /* \"#utility.yul\":5187:5260   */\n      swap3\n      pop\n        /* \"#utility.yul\":4982:5270   */\n      pop\n        /* \"#utility.yul\":5309:5311   */\n      0x60\n        /* \"#utility.yul\":5335:5388   */\n      tag_213\n        /* \"#utility.yul\":5380:5387   */\n      dup8\n        /* \"#utility.yul\":5371:5377   */\n      dup3\n        /* \"#utility.yul\":5360:5369   */\n      dup9\n        /* \"#utility.yul\":5356:5378   */\n      add\n        /* \"#utility.yul\":5335:5388   */\n      tag_114\n      jump\t// in\n    tag_213:\n        /* \"#utility.yul\":5325:5388   */\n      swap2\n      pop\n        /* \"#utility.yul\":5280:5398   */\n      pop\n        /* \"#utility.yul\":4284:5405   */\n      swap3\n      swap6\n      swap2\n      swap5\n      pop\n      swap3\n      pop\n      jump\t// out\n        /* \"#utility.yul\":5411:5537   */\n    tag_129:\n        /* \"#utility.yul\":5448:5455   */\n      0x00\n        /* \"#utility.yul\":5488:5530   */\n      0xffffffffffffffffffffffffffffffffffffffff\n        /* \"#utility.yul\":5481:5486   */\n      dup3\n        /* \"#utility.yul\":5477:5531   */\n      and\n        /* \"#utility.yul\":5466:5531   */\n      swap1\n      pop\n        /* \"#utility.yul\":5411:5537   */\n      swap2\n      swap1\n      pop\n      jump\t// out\n        /* \"#utility.yul\":5543:5639   */\n    tag_130:\n        /* \"#utility.yul\":5580:5587   */\n      0x00\n        /* \"#utility.yul\":5609:5633   */\n      tag_216\n        /* \"#utility.yul\":5627:5632   */\n      dup3\n        /* \"#utility.yul\":5609:5633   */\n      tag_129\n      jump\t// in\n    tag_216:\n        /* \"#utility.yul\":5598:5633   */\n      swap1\n      pop\n        /* \"#utility.yul\":5543:5639   */\n      swap2\n      swap1\n      pop\n      jump\t// out\n        /* \"#utility.yul\":5645:5763   */\n    tag_131:\n        /* \"#utility.yul\":5732:5756   */\n      tag_218\n        /* \"#utility.yul\":5750:5755   */\n      dup2\n        /* \"#utility.yul\":5732:5756   */\n      tag_130\n      jump\t// in\n    tag_218:\n        /* \"#utility.yul\":5727:5730   */\n      dup3\n        /* \"#utility.yul\":5720:5757   */\n      mstore\n        /* \"#utility.yul\":5645:5763   */\n      pop\n      pop\n      jump\t// out\n        /* \"#utility.yul\":5769:5991   */\n    tag_43:\n        /* \"#utility.yul\":5862:5866   */\n      0x00\n        /* \"#utility.yul\":5900:5902   */\n      0x20\n        /* \"#utility.yul\":5889:5898   */\n      dup3\n        /* \"#utility.yul\":5885:5903   */\n      add\n        /* \"#utility.yul\":5877:5903   */\n      swap1\n      pop\n        /* \"#utility.yul\":5913:5984   */\n      tag_220\n        /* \"#utility.yul\":5981:5982   */\n      0x00\n        /* \"#utility.yul\":5970:5979   */\n      dup4\n        /* \"#utility.yul\":5966:5983   */\n      add\n        /* \"#utility.yul\":5957:5963   */\n      dup5\n        /* \"#utility.yul\":5913:5984   */\n      tag_131\n      jump\t// in\n    tag_220:\n        /* \"#utility.yul\":5769:5991   */\n      swap3\n      swap2\n      pop\n      pop\n      jump\t// out\n        /* \"#utility.yul\":5997:6087   */\n    tag_132:\n        /* \"#utility.yul\":6031:6038   */\n      0x00\n        /* \"#utility.yul\":6074:6079   */\n      dup2\n        /* \"#utility.yul\":6067:6080   */\n      iszero\n        /* \"#utility.yul\":6060:6081   */\n      iszero\n        /* \"#utility.yul\":6049:6081   */\n      swap1\n      pop\n        /* \"#utility.yul\":5997:6087   */\n      swap2\n      swap1\n      pop\n      jump\t// out\n        /* \"#utility.yul\":6093:6202   */\n    tag_133:\n        /* \"#utility.yul\":6174:6195   */\n      tag_223\n        /* \"#utility.yul\":6189:6194   */\n      dup2\n        /* \"#utility.yul\":6174:6195   */\n      tag_132\n      jump\t// in\n    tag_223:\n        /* \"#utility.yul\":6169:6172   */\n      dup3\n        /* \"#utility.yul\":6162:6196   */\n      mstore\n        /* \"#utility.yul\":6093:6202   */\n      pop\n      pop\n      jump\t// out\n        /* \"#utility.yul\":6208:6418   */\n    tag_52:\n        /* \"#utility.yul\":6295:6299   */\n      0x00\n        /* \"#utility.yul\":6333:6335   */\n      0x20\n        /* \"#utility.yul\":6322:6331   */\n      dup3\n        /* \"#utility.yul\":6318:6336   */\n      add\n        /* \"#utility.yul\":6310:6336   */\n      swap1\n      pop\n        /* \"#utility.yul\":6346:6411   */\n      tag_225\n        /* \"#utility.yul\":6408:6409   */\n      0x00\n        /* \"#utility.yul\":6397:6406   */\n      dup4\n        /* \"#utility.yul\":6393:6410   */\n      add\n        /* \"#utility.yul\":6384:6390   */\n      dup5\n        /* \"#utility.yul\":6346:6411   */\n      tag_133\n      jump\t// in\n    tag_225:\n        /* \"#utility.yul\":6208:6418   */\n      swap3\n      swap2\n      pop\n      pop\n      jump\t// out\n        /* \"#utility.yul\":6424:6528   */\n    tag_134:\n        /* \"#utility.yul\":6469:6476   */\n      0x00\n        /* \"#utility.yul\":6498:6522   */\n      tag_227\n        /* \"#utility.yul\":6516:6521   */\n      dup3\n        /* \"#utility.yul\":6498:6522   */\n      tag_129\n      jump\t// in\n    tag_227:\n        /* \"#utility.yul\":6487:6522   */\n      swap1\n      pop\n        /* \"#utility.yul\":6424:6528   */\n      swap2\n      swap1\n      pop\n      jump\t// out\n        /* \"#utility.yul\":6534:6672   */\n    tag_135:\n        /* \"#utility.yul\":6615:6647   */\n      tag_229\n        /* \"#utility.yul\":6641:6646   */\n      dup2\n        /* \"#utility.yul\":6615:6647   */\n      tag_134\n      jump\t// in\n    tag_229:\n        /* \"#utility.yul\":6608:6613   */\n      dup2\n        /* \"#utility.yul\":6605:6648   */\n      eq\n        /* \"#utility.yul\":6595:6666   */\n      tag_230\n      jumpi\n        /* \"#utility.yul\":6662:6663   */\n      0x00\n        /* \"#utility.yul\":6659:6660   */\n      dup1\n        /* \"#utility.yul\":6652:6664   */\n      revert\n        /* \"#utility.yul\":6595:6666   */\n    tag_230:\n        /* \"#utility.yul\":6534:6672   */\n      pop\n      jump\t// out\n        /* \"#utility.yul\":6678:6833   */\n    tag_136:\n        /* \"#utility.yul\":6732:6737   */\n      0x00\n        /* \"#utility.yul\":6770:6776   */\n      dup2\n        /* \"#utility.yul\":6757:6777   */\n      calldataload\n        /* \"#utility.yul\":6748:6777   */\n      swap1\n      pop\n        /* \"#utility.yul\":6786:6827   */\n      tag_232\n        /* \"#utility.yul\":6821:6826   */\n      dup2\n        /* \"#utility.yul\":6786:6827   */\n      tag_135\n      jump\t// in\n    tag_232:\n        /* \"#utility.yul\":6678:6833   */\n      swap3\n      swap2\n      pop\n      pop\n      jump\t// out\n        /* \"#utility.yul\":6839:7184   */\n    tag_60:\n        /* \"#utility.yul\":6906:6912   */\n      0x00\n        /* \"#utility.yul\":6955:6957   */\n      0x20\n        /* \"#utility.yul\":6943:6952   */\n      dup3\n        /* \"#utility.yul\":6934:6941   */\n      dup5\n        /* \"#utility.yul\":6930:6953   */\n      sub\n        /* \"#utility.yul\":6926:6958   */\n      slt\n        /* \"#utility.yul\":6923:7042   */\n      iszero\n      tag_234\n      jumpi\n        /* \"#utility.yul\":6961:7040   */\n      tag_235\n      tag_110\n      jump\t// in\n    tag_235:\n        /* \"#utility.yul\":6923:7042   */\n    tag_234:\n        /* \"#utility.yul\":7081:7082   */\n      0x00\n        /* \"#utility.yul\":7106:7167   */\n      tag_236\n        /* \"#utility.yul\":7159:7166   */\n      dup5\n        /* \"#utility.yul\":7150:7156   */\n      dup3\n        /* \"#utility.yul\":7139:7148   */\n      dup6\n        /* \"#utility.yul\":7135:7157   */\n      add\n        /* \"#utility.yul\":7106:7167   */\n      tag_136\n      jump\t// in\n    tag_236:\n        /* \"#utility.yul\":7096:7167   */\n      swap2\n      pop\n        /* \"#utility.yul\":7052:7177   */\n      pop\n        /* \"#utility.yul\":6839:7184   */\n      swap3\n      swap2\n      pop\n      pop\n      jump\t// out\n        /* \"#utility.yul\":7190:7359   */\n    tag_137:\n        /* \"#utility.yul\":7274:7285   */\n      0x00\n        /* \"#utility.yul\":7308:7314   */\n      dup3\n        /* \"#utility.yul\":7303:7306   */\n      dup3\n        /* \"#utility.yul\":7296:7315   */\n      mstore\n        /* \"#utility.yul\":7348:7352   */\n      0x20\n        /* \"#utility.yul\":7343:7346   */\n      dup3\n        /* \"#utility.yul\":7339:7353   */\n      add\n        /* \"#utility.yul\":7324:7353   */\n      swap1\n      pop\n        /* \"#utility.yul\":7190:7359   */\n      swap3\n      swap2\n      pop\n      pop\n      jump\t// out\n        /* \"#utility.yul\":7365:7588   */\n    tag_138:\n        /* \"#utility.yul\":7505:7539   */\n      0x4f6e6c79206f776e65722063616e206578656375746520746869732066756e63\n        /* \"#utility.yul\":7501:7502   */\n      0x00\n        /* \"#utility.yul\":7493:7499   */\n      dup3\n        /* \"#utility.yul\":7489:7503   */\n      add\n        /* \"#utility.yul\":7482:7540   */\n      mstore\n        /* \"#utility.yul\":7574:7580   */\n      0x74696f6e00000000000000000000000000000000000000000000000000000000\n        /* \"#utility.yul\":7569:7571   */\n      0x20\n        /* \"#utility.yul\":7561:7567   */\n      dup3\n        /* \"#utility.yul\":7557:7572   */\n      add\n        /* \"#utility.yul\":7550:7581   */\n      mstore\n        /* \"#utility.yul\":7365:7588   */\n      pop\n      jump\t// out\n        /* \"#utility.yul\":7594:7960   */\n    tag_139:\n        /* \"#utility.yul\":7736:7739   */\n      0x00\n        /* \"#utility.yul\":7757:7824   */\n      tag_240\n        /* \"#utility.yul\":7821:7823   */\n      0x24\n        /* \"#utility.yul\":7816:7819   */\n      dup4\n        /* \"#utility.yul\":7757:7824   */\n      tag_137\n      jump\t// in\n    tag_240:\n        /* \"#utility.yul\":7750:7824   */\n      swap2\n      pop\n        /* \"#utility.yul\":7833:7926   */\n      tag_241\n        /* \"#utility.yul\":7922:7925   */\n      dup3\n        /* \"#utility.yul\":7833:7926   */\n      tag_138\n      jump\t// in\n    tag_241:\n        /* \"#utility.yul\":7951:7953   */\n      0x40\n        /* \"#utility.yul\":7946:7949   */\n      dup3\n        /* \"#utility.yul\":7942:7954   */\n      add\n        /* \"#utility.yul\":7935:7954   */\n      swap1\n      pop\n        /* \"#utility.yul\":7594:7960   */\n      swap2\n      swap1\n      pop\n      jump\t// out\n        /* \"#utility.yul\":7966:8385   */\n    tag_70:\n        /* \"#utility.yul\":8132:8136   */\n      0x00\n        /* \"#utility.yul\":8170:8172   */\n      0x20\n        /* \"#utility.yul\":8159:8168   */\n      dup3\n        /* \"#utility.yul\":8155:8173   */\n      add\n        /* \"#utility.yul\":8147:8173   */\n      swap1\n      pop\n        /* \"#utility.yul\":8219:8228   */\n      dup2\n        /* \"#utility.yul\":8213:8217   */\n      dup2\n        /* \"#utility.yul\":8209:8229   */\n      sub\n        /* \"#utility.yul\":8205:8206   */\n      0x00\n        /* \"#utility.yul\":8194:8203   */\n      dup4\n        /* \"#utility.yul\":8190:8207   */\n      add\n        /* \"#utility.yul\":8183:8230   */\n      mstore\n        /* \"#utility.yul\":8247:8378   */\n      tag_243\n        /* \"#utility.yul\":8373:8377   */\n      dup2\n        /* \"#utility.yul\":8247:8378   */\n      tag_139\n      jump\t// in\n    tag_243:\n        /* \"#utility.yul\":8239:8378   */\n      swap1\n      pop\n        /* \"#utility.yul\":7966:8385   */\n      swap2\n      swap1\n      pop\n      jump\t// out\n        /* \"#utility.yul\":8391:8572   */\n    tag_140:\n        /* \"#utility.yul\":8531:8564   */\n      0x54686520726f6f6d2068617320616c7265616479206265656e2074616b656e00\n        /* \"#utility.yul\":8527:8528   */\n      0x00\n        /* \"#utility.yul\":8519:8525   */\n      dup3\n        /* \"#utility.yul\":8515:8529   */\n      add\n        /* \"#utility.yul\":8508:8565   */\n      mstore\n        /* \"#utility.yul\":8391:8572   */\n      pop\n      jump\t// out\n        /* \"#utility.yul\":8578:8944   */\n    tag_141:\n        /* \"#utility.yul\":8720:8723   */\n      0x00\n        /* \"#utility.yul\":8741:8808   */\n      tag_246\n        /* \"#utility.yul\":8805:8807   */\n      0x1f\n        /* \"#utility.yul\":8800:8803   */\n      dup4\n        /* \"#utility.yul\":8741:8808   */\n      tag_137\n      jump\t// in\n    tag_246:\n        /* \"#utility.yul\":8734:8808   */\n      swap2\n      pop\n        /* \"#utility.yul\":8817:8910   */\n      tag_247\n        /* \"#utility.yul\":8906:8909   */\n      dup3\n        /* \"#utility.yul\":8817:8910   */\n      tag_140\n      jump\t// in\n    tag_247:\n        /* \"#utility.yul\":8935:8937   */\n      0x20\n        /* \"#utility.yul\":8930:8933   */\n      dup3\n        /* \"#utility.yul\":8926:8938   */\n      add\n        /* \"#utility.yul\":8919:8938   */\n      swap1\n      pop\n        /* \"#utility.yul\":8578:8944   */\n      swap2\n      swap1\n      pop\n      jump\t// out\n        /* \"#utility.yul\":8950:9369   */\n    tag_78:\n        /* \"#utility.yul\":9116:9120   */\n      0x00\n        /* \"#utility.yul\":9154:9156   */\n      0x20\n        /* \"#utility.yul\":9143:9152   */\n      dup3\n        /* \"#utility.yul\":9139:9157   */\n      add\n        /* \"#utility.yul\":9131:9157   */\n      swap1\n      pop\n        /* \"#utility.yul\":9203:9212   */\n      dup2\n        /* \"#utility.yul\":9197:9201   */\n      dup2\n        /* \"#utility.yul\":9193:9213   */\n      sub\n        /* \"#utility.yul\":9189:9190   */\n      0x00\n        /* \"#utility.yul\":9178:9187   */\n      dup4\n        /* \"#utility.yul\":9174:9191   */\n      add\n        /* \"#utility.yul\":9167:9214   */\n      mstore\n        /* \"#utility.yul\":9231:9362   */\n      tag_249\n        /* \"#utility.yul\":9357:9361   */\n      dup2\n        /* \"#utility.yul\":9231:9362   */\n      tag_141\n      jump\t// in\n    tag_249:\n        /* \"#utility.yul\":9223:9362   */\n      swap1\n      pop\n        /* \"#utility.yul\":8950:9369   */\n      swap2\n      swap1\n      pop\n      jump\t// out\n        /* \"#utility.yul\":9375:9542   */\n    tag_142:\n        /* \"#utility.yul\":9515:9534   */\n      0x5370656369667920796f7572206e616d65000000000000000000000000000000\n        /* \"#utility.yul\":9511:9512   */\n      0x00\n        /* \"#utility.yul\":9503:9509   */\n      dup3\n        /* \"#utility.yul\":9499:9513   */\n      add\n        /* \"#utility.yul\":9492:9535   */\n      mstore\n        /* \"#utility.yul\":9375:9542   */\n      pop\n      jump\t// out\n        /* \"#utility.yul\":9548:9914   */\n    tag_143:\n        /* \"#utility.yul\":9690:9693   */\n      0x00\n        /* \"#utility.yul\":9711:9778   */\n      tag_252\n        /* \"#utility.yul\":9775:9777   */\n      0x11\n        /* \"#utility.yul\":9770:9773   */\n      dup4\n        /* \"#utility.yul\":9711:9778   */\n      tag_137\n      jump\t// in\n    tag_252:\n        /* \"#utility.yul\":9704:9778   */\n      swap2\n      pop\n        /* \"#utility.yul\":9787:9880   */\n      tag_253\n        /* \"#utility.yul\":9876:9879   */\n      dup3\n        /* \"#utility.yul\":9787:9880   */\n      tag_142\n      jump\t// in\n    tag_253:\n        /* \"#utility.yul\":9905:9907   */\n      0x20\n        /* \"#utility.yul\":9900:9903   */\n      dup3\n        /* \"#utility.yul\":9896:9908   */\n      add\n        /* \"#utility.yul\":9889:9908   */\n      swap1\n      pop\n        /* \"#utility.yul\":9548:9914   */\n      swap2\n      swap1\n      pop\n      jump\t// out\n        /* \"#utility.yul\":9920:10339   */\n    tag_81:\n        /* \"#utility.yul\":10086:10090   */\n      0x00\n        /* \"#utility.yul\":10124:10126   */\n      0x20\n        /* \"#utility.yul\":10113:10122   */\n      dup3\n        /* \"#utility.yul\":10109:10127   */\n      add\n        /* \"#utility.yul\":10101:10127   */\n      swap1\n      pop\n        /* \"#utility.yul\":10173:10182   */\n      dup2\n        /* \"#utility.yul\":10167:10171   */\n      dup2\n        /* \"#utility.yul\":10163:10183   */\n      sub\n        /* \"#utility.yul\":10159:10160   */\n      0x00\n        /* \"#utility.yul\":10148:10157   */\n      dup4\n        /* \"#utility.yul\":10144:10161   */\n      add\n        /* \"#utility.yul\":10137:10184   */\n      mstore\n        /* \"#utility.yul\":10201:10332   */\n      tag_255\n        /* \"#utility.yul\":10327:10331   */\n      dup2\n        /* \"#utility.yul\":10201:10332   */\n      tag_143\n      jump\t// in\n    tag_255:\n        /* \"#utility.yul\":10193:10332   */\n      swap1\n      pop\n        /* \"#utility.yul\":9920:10339   */\n      swap2\n      swap1\n      pop\n      jump\t// out\n        /* \"#utility.yul\":10345:10515   */\n    tag_144:\n        /* \"#utility.yul\":10485:10507   */\n      0x5370656369667920796f7572207375726e616d65000000000000000000000000\n        /* \"#utility.yul\":10481:10482   */\n      0x00\n        /* \"#utility.yul\":10473:10479   */\n      dup3\n        /* \"#utility.yul\":10469:10483   */\n      add\n        /* \"#utility.yul\":10462:10508   */\n      mstore\n        /* \"#utility.yul\":10345:10515   */\n      pop\n      jump\t// out\n        /* \"#utility.yul\":10521:10887   */\n    tag_145:\n        /* \"#utility.yul\":10663:10666   */\n      0x00\n        /* \"#utility.yul\":10684:10751   */\n      tag_258\n        /* \"#utility.yul\":10748:10750   */\n      0x14\n        /* \"#utility.yul\":10743:10746   */\n      dup4\n        /* \"#utility.yul\":10684:10751   */\n      tag_137\n      jump\t// in\n    tag_258:\n        /* \"#utility.yul\":10677:10751   */\n      swap2\n      pop\n        /* \"#utility.yul\":10760:10853   */\n      tag_259\n        /* \"#utility.yul\":10849:10852   */\n      dup3\n        /* \"#utility.yul\":10760:10853   */\n      tag_144\n      jump\t// in\n    tag_259:\n        /* \"#utility.yul\":10878:10880   */\n      0x20\n        /* \"#utility.yul\":10873:10876   */\n      dup3\n        /* \"#utility.yul\":10869:10881   */\n      add\n        /* \"#utility.yul\":10862:10881   */\n      swap1\n      pop\n        /* \"#utility.yul\":10521:10887   */\n      swap2\n      swap1\n      pop\n      jump\t// out\n        /* \"#utility.yul\":10893:11312   */\n    tag_84:\n        /* \"#utility.yul\":11059:11063   */\n      0x00\n        /* \"#utility.yul\":11097:11099   */\n      0x20\n        /* \"#utility.yul\":11086:11095   */\n      dup3\n        /* \"#utility.yul\":11082:11100   */\n      add\n        /* \"#utility.yul\":11074:11100   */\n      swap1\n      pop\n        /* \"#utility.yul\":11146:11155   */\n      dup2\n        /* \"#utility.yul\":11140:11144   */\n      dup2\n        /* \"#utility.yul\":11136:11156   */\n      sub\n        /* \"#utility.yul\":11132:11133   */\n      0x00\n        /* \"#utility.yul\":11121:11130   */\n      dup4\n        /* \"#utility.yul\":11117:11134   */\n      add\n        /* \"#utility.yul\":11110:11157   */\n      mstore\n        /* \"#utility.yul\":11174:11305   */\n      tag_261\n        /* \"#utility.yul\":11300:11304   */\n      dup2\n        /* \"#utility.yul\":11174:11305   */\n      tag_145\n      jump\t// in\n    tag_261:\n        /* \"#utility.yul\":11166:11305   */\n      swap1\n      pop\n        /* \"#utility.yul\":10893:11312   */\n      swap2\n      swap1\n      pop\n      jump\t// out\n        /* \"#utility.yul\":11318:11498   */\n    tag_146:\n        /* \"#utility.yul\":11366:11443   */\n      0x4e487b7100000000000000000000000000000000000000000000000000000000\n        /* \"#utility.yul\":11363:11364   */\n      0x00\n        /* \"#utility.yul\":11356:11444   */\n      mstore\n        /* \"#utility.yul\":11463:11467   */\n      0x11\n        /* \"#utility.yul\":11460:11461   */\n      0x04\n        /* \"#utility.yul\":11453:11468   */\n      mstore\n        /* \"#utility.yul\":11487:11491   */\n      0x24\n        /* \"#utility.yul\":11484:11485   */\n      0x00\n        /* \"#utility.yul\":11477:11492   */\n      revert\n        /* \"#utility.yul\":11504:11914   */\n    tag_86:\n        /* \"#utility.yul\":11544:11551   */\n      0x00\n        /* \"#utility.yul\":11567:11587   */\n      tag_264\n        /* \"#utility.yul\":11585:11586   */\n      dup3\n        /* \"#utility.yul\":11567:11587   */\n      tag_112\n      jump\t// in\n    tag_264:\n        /* \"#utility.yul\":11562:11587   */\n      swap2\n      pop\n        /* \"#utility.yul\":11601:11621   */\n      tag_265\n        /* \"#utility.yul\":11619:11620   */\n      dup4\n        /* \"#utility.yul\":11601:11621   */\n      tag_112\n      jump\t// in\n    tag_265:\n        /* \"#utility.yul\":11596:11621   */\n      swap3\n      pop\n        /* \"#utility.yul\":11656:11657   */\n      dup3\n        /* \"#utility.yul\":11653:11654   */\n      dup3\n        /* \"#utility.yul\":11649:11658   */\n      mul\n        /* \"#utility.yul\":11678:11708   */\n      tag_266\n        /* \"#utility.yul\":11696:11707   */\n      dup2\n        /* \"#utility.yul\":11678:11708   */\n      tag_112\n      jump\t// in\n    tag_266:\n        /* \"#utility.yul\":11667:11708   */\n      swap2\n      pop\n        /* \"#utility.yul\":11857:11858   */\n      dup3\n        /* \"#utility.yul\":11848:11855   */\n      dup3\n        /* \"#utility.yul\":11844:11859   */\n      div\n        /* \"#utility.yul\":11841:11842   */\n      dup5\n        /* \"#utility.yul\":11838:11860   */\n      eq\n        /* \"#utility.yul\":11818:11819   */\n      dup4\n        /* \"#utility.yul\":11811:11820   */\n      iszero\n        /* \"#utility.yul\":11791:11874   */\n      or\n        /* \"#utility.yul\":11768:11907   */\n      tag_267\n      jumpi\n        /* \"#utility.yul\":11887:11905   */\n      tag_268\n      tag_146\n      jump\t// in\n    tag_268:\n        /* \"#utility.yul\":11768:11907   */\n    tag_267:\n        /* \"#utility.yul\":11552:11914   */\n      pop\n        /* \"#utility.yul\":11504:11914   */\n      swap3\n      swap2\n      pop\n      pop\n      jump\t// out\n        /* \"#utility.yul\":11920:12099   */\n    tag_147:\n        /* \"#utility.yul\":12060:12091   */\n      0x596f7520686176656e27742073656e7420656e6f756768206574686572000000\n        /* \"#utility.yul\":12056:12057   */\n      0x00\n        /* \"#utility.yul\":12048:12054   */\n      dup3\n        /* \"#utility.yul\":12044:12058   */\n      add\n        /* \"#utility.yul\":12037:12092   */\n      mstore\n        /* \"#utility.yul\":11920:12099   */\n      pop\n      jump\t// out\n        /* \"#utility.yul\":12105:12471   */\n    tag_148:\n        /* \"#utility.yul\":12247:12250   */\n      0x00\n        /* \"#utility.yul\":12268:12335   */\n      tag_271\n        /* \"#utility.yul\":12332:12334   */\n      0x1d\n        /* \"#utility.yul\":12327:12330   */\n      dup4\n        /* \"#utility.yul\":12268:12335   */\n      tag_137\n      jump\t// in\n    tag_271:\n        /* \"#utility.yul\":12261:12335   */\n      swap2\n      pop\n        /* \"#utility.yul\":12344:12437   */\n      tag_272\n        /* \"#utility.yul\":12433:12436   */\n      dup3\n        /* \"#utility.yul\":12344:12437   */\n      tag_147\n      jump\t// in\n    tag_272:\n        /* \"#utility.yul\":12462:12464   */\n      0x20\n        /* \"#utility.yul\":12457:12460   */\n      dup3\n        /* \"#utility.yul\":12453:12465   */\n      add\n        /* \"#utility.yul\":12446:12465   */\n      swap1\n      pop\n        /* \"#utility.yul\":12105:12471   */\n      swap2\n      swap1\n      pop\n      jump\t// out\n        /* \"#utility.yul\":12477:12896   */\n    tag_89:\n        /* \"#utility.yul\":12643:12647   */\n      0x00\n        /* \"#utility.yul\":12681:12683   */\n      0x20\n        /* \"#utility.yul\":12670:12679   */\n      dup3\n        /* \"#utility.yul\":12666:12684   */\n      add\n        /* \"#utility.yul\":12658:12684   */\n      swap1\n      pop\n        /* \"#utility.yul\":12730:12739   */\n      dup2\n        /* \"#utility.yul\":12724:12728   */\n      dup2\n        /* \"#utility.yul\":12720:12740   */\n      sub\n        /* \"#utility.yul\":12716:12717   */\n      0x00\n        /* \"#utility.yul\":12705:12714   */\n      dup4\n        /* \"#utility.yul\":12701:12718   */\n      add\n        /* \"#utility.yul\":12694:12741   */\n      mstore\n        /* \"#utility.yul\":12758:12889   */\n      tag_274\n        /* \"#utility.yul\":12884:12888   */\n      dup2\n        /* \"#utility.yul\":12758:12889   */\n      tag_148\n      jump\t// in\n    tag_274:\n        /* \"#utility.yul\":12750:12889   */\n      swap1\n      pop\n        /* \"#utility.yul\":12477:12896   */\n      swap2\n      swap1\n      pop\n      jump\t// out\n        /* \"#utility.yul\":12902:13093   */\n    tag_92:\n        /* \"#utility.yul\":12942:12945   */\n      0x00\n        /* \"#utility.yul\":12961:12981   */\n      tag_276\n        /* \"#utility.yul\":12979:12980   */\n      dup3\n        /* \"#utility.yul\":12961:12981   */\n      tag_112\n      jump\t// in\n    tag_276:\n        /* \"#utility.yul\":12956:12981   */\n      swap2\n      pop\n        /* \"#utility.yul\":12995:13015   */\n      tag_277\n        /* \"#utility.yul\":13013:13014   */\n      dup4\n        /* \"#utility.yul\":12995:13015   */\n      tag_112\n      jump\t// in\n    tag_277:\n        /* \"#utility.yul\":12990:13015   */\n      swap3\n      pop\n        /* \"#utility.yul\":13038:13039   */\n      dup3\n        /* \"#utility.yul\":13035:13036   */\n      dup3\n        /* \"#utility.yul\":13031:13040   */\n      add\n        /* \"#utility.yul\":13024:13040   */\n      swap1\n      pop\n        /* \"#utility.yul\":13059:13062   */\n      dup1\n        /* \"#utility.yul\":13056:13057   */\n      dup3\n        /* \"#utility.yul\":13053:13063   */\n      gt\n        /* \"#utility.yul\":13050:13086   */\n      iszero\n      tag_278\n      jumpi\n        /* \"#utility.yul\":13066:13084   */\n      tag_279\n      tag_146\n      jump\t// in\n    tag_279:\n        /* \"#utility.yul\":13050:13086   */\n    tag_278:\n        /* \"#utility.yul\":12902:13093   */\n      swap3\n      swap2\n      pop\n      pop\n      jump\t// out\n        /* \"#utility.yul\":13099:13266   */\n    tag_100:\n        /* \"#utility.yul\":13136:13139   */\n      0x00\n        /* \"#utility.yul\":13159:13181   */\n      tag_281\n        /* \"#utility.yul\":13175:13180   */\n      dup3\n        /* \"#utility.yul\":13159:13181   */\n      tag_115\n      jump\t// in\n    tag_281:\n        /* \"#utility.yul\":13150:13181   */\n      swap2\n      pop\n        /* \"#utility.yul\":13203:13207   */\n      0xff\n        /* \"#utility.yul\":13196:13201   */\n      dup3\n        /* \"#utility.yul\":13193:13208   */\n      sub\n        /* \"#utility.yul\":13190:13231   */\n      tag_282\n      jumpi\n        /* \"#utility.yul\":13211:13229   */\n      tag_283\n      tag_146\n      jump\t// in\n    tag_283:\n        /* \"#utility.yul\":13190:13231   */\n    tag_282:\n        /* \"#utility.yul\":13258:13259   */\n      0x01\n        /* \"#utility.yul\":13251:13256   */\n      dup3\n        /* \"#utility.yul\":13247:13260   */\n      add\n        /* \"#utility.yul\":13240:13260   */\n      swap1\n      pop\n        /* \"#utility.yul\":13099:13266   */\n      swap2\n      swap1\n      pop\n      jump\t// out\n\n    auxdata: 0xa26469706673582212200b9f629d427f9c774e0469ad39ec2e5bd364fbfe4c15ee26337d2d289f6ee61564736f6c63430008120033\n}\n",
				"bytecode": {
					"linkReferences": {},
					"object": "608060405266b1a2bc2ec5000060035534801561001b57600080fd5b50336000806101000a81548173ffffffffffffffffffffffffffffffffffffffff021916908373ffffffffffffffffffffffffffffffffffffffff160217905550610ef68061006b6000396000f3fe60806040526004361061009c5760003560e01c80638da5cb5b116100645780638da5cb5b1461018b578063bdfe2eea146101b6578063bfdbac03146101cd578063ee5628791461020a578063fa09e63014610235578063fc76c1d61461025e5761009c565b806330392ac6146100a15780633bd33af8146100ca5780634297fe02146101075780636d7900811461014457806386a1b2dc1461016f575b600080fd5b3480156100ad57600080fd5b506100c860048036038101906100c39190610800565b61029b565b005b3480156100d657600080fd5b506100f160048036038101906100ec9190610866565b610333565b6040516100fe91906108a2565b60405180910390f35b34801561011357600080fd5b5061012e60048036038101906101299190610866565b610356565b60405161013b91906108a2565b60405180910390f35b34801561015057600080fd5b5061015961036e565b60405161016691906108a2565b60405180910390f35b61018960048036038101906101849190610a03565b610376565b005b34801561019757600080fd5b506101a0610531565b6040516101ad9190610ae3565b60405180910390f35b3480156101c257600080fd5b506101cb610555565b005b3480156101d957600080fd5b506101f460048036038101906101ef9190610866565b610630565b6040516102019190610b19565b60405180910390f35b34801561021657600080fd5b5061021f6106a1565b60405161022c91906108a2565b60405180910390f35b34801561024157600080fd5b5061025c60048036038101906102579190610b72565b6106ab565b005b34801561026a57600080fd5b5061028560048036038101906102809190610866565b610783565b6040516102929190610ae3565b60405180910390f35b60008054906101000a900473ffffffffffffffffffffffffffffffffffffffff1673ffffffffffffffffffffffffffffffffffffffff163373ffffffffffffffffffffffffffffffffffffffff1614610329576040517f08c379a000000000000000000000000000000000000000000000000000000000815260040161032090610c22565b60405180910390fd5b8060038190555050565b6000600260008360ff1660ff168152602001908152602001600020549050919050565b60026020528060005260406000206000915090505481565b600047905090565b600061038185610630565b9050806103c3576040517f08c379a00000000000000000000000000000000000000000000000000000000081526004016103ba90610c8e565b60405180910390fd5b6000845103610407576040517f08c379a00000000000000000000000000000000000000000000000000000000081526004016103fe90610cfa565b60405180910390fd5b600083510361044b576040517f08c379a000000000000000000000000000000000000000000000000000000000815260040161044290610d66565b60405180910390fd5b816003546104599190610db5565b34101561049b576040517f08c379a000000000000000000000000000000000000000000000000000000000815260040161049290610e43565b60405180910390fd5b33600160008760ff1660ff16815260200190815260200160002060006101000a81548173ffffffffffffffffffffffffffffffffffffffff021916908373ffffffffffffffffffffffffffffffffffffffff16021790555062015180826105029190610db5565b4261050d9190610e63565b600260008760ff1660ff168152602001908152602001600020819055505050505050565b60008054906101000a900473ffffffffffffffffffffffffffffffffffffffff1681565b60004290506000600190505b60ff8160ff161161062c576000600260008360ff1660ff168152602001908152602001600020549050828110801561059a575060008114155b15610618576000600260008460ff1660ff168152602001908152602001600020819055506000600160008460ff1660ff16815260200190815260200160002060006101000a81548173ffffffffffffffffffffffffffffffffffffffff021916908373ffffffffffffffffffffffffffffffffffffffff1602179055505b50808061062490610e97565b915050610561565b5050565b60008073ffffffffffffffffffffffffffffffffffffffff16600160008460ff1660ff16815260200190815260200160002060009054906101000a900473ffffffffffffffffffffffffffffffffffffffff1673ffffffffffffffffffffffffffffffffffffffff16149050919050565b6000600354905090565b60008054906101000a900473ffffffffffffffffffffffffffffffffffffffff1673ffffffffffffffffffffffffffffffffffffffff163373ffffffffffffffffffffffffffffffffffffffff1614610739576040517f08c379a000000000000000000000000000000000000000000000000000000000815260040161073090610c22565b60405180910390fd5b8073ffffffffffffffffffffffffffffffffffffffff166108fc479081150290604051600060405180830381858888f1935050505015801561077f573d6000803e3d6000fd5b5050565b60016020528060005260406000206000915054906101000a900473ffffffffffffffffffffffffffffffffffffffff1681565b6000604051905090565b600080fd5b600080fd5b6000819050919050565b6107dd816107ca565b81146107e857600080fd5b50565b6000813590506107fa816107d4565b92915050565b600060208284031215610816576108156107c0565b5b6000610824848285016107eb565b91505092915050565b600060ff82169050919050565b6108438161082d565b811461084e57600080fd5b50565b6000813590506108608161083a565b92915050565b60006020828403121561087c5761087b6107c0565b5b600061088a84828501610851565b91505092915050565b61089c816107ca565b82525050565b60006020820190506108b76000830184610893565b92915050565b600080fd5b600080fd5b6000601f19601f8301169050919050565b7f4e487b7100000000000000000000000000000000000000000000000000000000600052604160045260246000fd5b610910826108c7565b810181811067ffffffffffffffff8211171561092f5761092e6108d8565b5b80604052505050565b60006109426107b6565b905061094e8282610907565b919050565b600067ffffffffffffffff82111561096e5761096d6108d8565b5b610977826108c7565b9050602081019050919050565b82818337600083830152505050565b60006109a66109a184610953565b610938565b9050828152602081018484840111156109c2576109c16108c2565b5b6109cd848285610984565b509392505050565b600082601f8301126109ea576109e96108bd565b5b81356109fa848260208601610993565b91505092915050565b60008060008060808587031215610a1d57610a1c6107c0565b5b6000610a2b87828801610851565b945050602085013567ffffffffffffffff811115610a4c57610a4b6107c5565b5b610a58878288016109d5565b935050604085013567ffffffffffffffff811115610a7957610a786107c5565b5b610a85878288016109d5565b9250506060610a96878288016107eb565b91505092959194509250565b600073ffffffffffffffffffffffffffffffffffffffff82169050919050565b6000610acd82610aa2565b9050919050565b610add81610ac2565b82525050565b6000602082019050610af86000830184610ad4565b92915050565b60008115159050919050565b610b1381610afe565b82525050565b6000602082019050610b2e6000830184610b0a565b92915050565b6000610b3f82610aa2565b9050919050565b610b4f81610b34565b8114610b5a57600080fd5b50565b600081359050610b6c81610b46565b92915050565b600060208284031215610b8857610b876107c0565b5b6000610b9684828501610b5d565b91505092915050565b600082825260208201905092915050565b7f4f6e6c79206f776e65722063616e206578656375746520746869732066756e6360008201527f74696f6e00000000000000000000000000000000000000000000000000000000602082015250565b6000610c0c602483610b9f565b9150610c1782610bb0565b604082019050919050565b60006020820190508181036000830152610c3b81610bff565b9050919050565b7f54686520726f6f6d2068617320616c7265616479206265656e2074616b656e00600082015250565b6000610c78601f83610b9f565b9150610c8382610c42565b602082019050919050565b60006020820190508181036000830152610ca781610c6b565b9050919050565b7f5370656369667920796f7572206e616d65000000000000000000000000000000600082015250565b6000610ce4601183610b9f565b9150610cef82610cae565b602082019050919050565b60006020820190508181036000830152610d1381610cd7565b9050919050565b7f5370656369667920796f7572207375726e616d65000000000000000000000000600082015250565b6000610d50601483610b9f565b9150610d5b82610d1a565b602082019050919050565b60006020820190508181036000830152610d7f81610d43565b9050919050565b7f4e487b7100000000000000000000000000000000000000000000000000000000600052601160045260246000fd5b6000610dc0826107ca565b9150610dcb836107ca565b9250828202610dd9816107ca565b91508282048414831517610df057610def610d86565b5b5092915050565b7f596f7520686176656e27742073656e7420656e6f756768206574686572000000600082015250565b6000610e2d601d83610b9f565b9150610e3882610df7565b602082019050919050565b60006020820190508181036000830152610e5c81610e20565b9050919050565b6000610e6e826107ca565b9150610e79836107ca565b9250828201905080821115610e9157610e90610d86565b5b92915050565b6000610ea28261082d565b915060ff8203610eb557610eb4610d86565b5b60018201905091905056fea26469706673582212200b9f629d427f9c774e0469ad39ec2e5bd364fbfe4c15ee26337d2d289f6ee61564736f6c63430008120033",
					"opcodes": "PUSH1 0x80 PUSH1 0x40 MSTORE PUSH7 0xB1A2BC2EC50000 PUSH1 0x3 SSTORE CALLVALUE DUP1 ISZERO PUSH2 0x1B JUMPI PUSH1 0x0 DUP1 REVERT JUMPDEST POP CALLER PUSH1 0x0 DUP1 PUSH2 0x100 EXP DUP2 SLOAD DUP2 PUSH20 0xFFFFFFFFFFFFFFFFFFFFFFFFFFFFFFFFFFFFFFFF MUL NOT AND SWAP1 DUP4 PUSH20 0xFFFFFFFFFFFFFFFFFFFFFFFFFFFFFFFFFFFFFFFF AND MUL OR SWAP1 SSTORE POP PUSH2 0xEF6 DUP1 PUSH2 0x6B PUSH1 0x0 CODECOPY PUSH1 0x0 RETURN INVALID PUSH1 0x80 PUSH1 0x40 MSTORE PUSH1 0x4 CALLDATASIZE LT PUSH2 0x9C JUMPI PUSH1 0x0 CALLDATALOAD PUSH1 0xE0 SHR DUP1 PUSH4 0x8DA5CB5B GT PUSH2 0x64 JUMPI DUP1 PUSH4 0x8DA5CB5B EQ PUSH2 0x18B JUMPI DUP1 PUSH4 0xBDFE2EEA EQ PUSH2 0x1B6 JUMPI DUP1 PUSH4 0xBFDBAC03 EQ PUSH2 0x1CD JUMPI DUP1 PUSH4 0xEE562879 EQ PUSH2 0x20A JUMPI DUP1 PUSH4 0xFA09E630 EQ PUSH2 0x235 JUMPI DUP1 PUSH4 0xFC76C1D6 EQ PUSH2 0x25E JUMPI PUSH2 0x9C JUMP JUMPDEST DUP1 PUSH4 0x30392AC6 EQ PUSH2 0xA1 JUMPI DUP1 PUSH4 0x3BD33AF8 EQ PUSH2 0xCA JUMPI DUP1 PUSH4 0x4297FE02 EQ PUSH2 0x107 JUMPI DUP1 PUSH4 0x6D790081 EQ PUSH2 0x144 JUMPI DUP1 PUSH4 0x86A1B2DC EQ PUSH2 0x16F JUMPI JUMPDEST PUSH1 0x0 DUP1 REVERT JUMPDEST CALLVALUE DUP1 ISZERO PUSH2 0xAD JUMPI PUSH1 0x0 DUP1 REVERT JUMPDEST POP PUSH2 0xC8 PUSH1 0x4 DUP1 CALLDATASIZE SUB DUP2 ADD SWAP1 PUSH2 0xC3 SWAP2 SWAP1 PUSH2 0x800 JUMP JUMPDEST PUSH2 0x29B JUMP JUMPDEST STOP JUMPDEST CALLVALUE DUP1 ISZERO PUSH2 0xD6 JUMPI PUSH1 0x0 DUP1 REVERT JUMPDEST POP PUSH2 0xF1 PUSH1 0x4 DUP1 CALLDATASIZE SUB DUP2 ADD SWAP1 PUSH2 0xEC SWAP2 SWAP1 PUSH2 0x866 JUMP JUMPDEST PUSH2 0x333 JUMP JUMPDEST PUSH1 0x40 MLOAD PUSH2 0xFE SWAP2 SWAP1 PUSH2 0x8A2 JUMP JUMPDEST PUSH1 0x40 MLOAD DUP1 SWAP2 SUB SWAP1 RETURN JUMPDEST CALLVALUE DUP1 ISZERO PUSH2 0x113 JUMPI PUSH1 0x0 DUP1 REVERT JUMPDEST POP PUSH2 0x12E PUSH1 0x4 DUP1 CALLDATASIZE SUB DUP2 ADD SWAP1 PUSH2 0x129 SWAP2 SWAP1 PUSH2 0x866 JUMP JUMPDEST PUSH2 0x356 JUMP JUMPDEST PUSH1 0x40 MLOAD PUSH2 0x13B SWAP2 SWAP1 PUSH2 0x8A2 JUMP JUMPDEST PUSH1 0x40 MLOAD DUP1 SWAP2 SUB SWAP1 RETURN JUMPDEST CALLVALUE DUP1 ISZERO PUSH2 0x150 JUMPI PUSH1 0x0 DUP1 REVERT JUMPDEST POP PUSH2 0x159 PUSH2 0x36E JUMP JUMPDEST PUSH1 0x40 MLOAD PUSH2 0x166 SWAP2 SWAP1 PUSH2 0x8A2 JUMP JUMPDEST PUSH1 0x40 MLOAD DUP1 SWAP2 SUB SWAP1 RETURN JUMPDEST PUSH2 0x189 PUSH1 0x4 DUP1 CALLDATASIZE SUB DUP2 ADD SWAP1 PUSH2 0x184 SWAP2 SWAP1 PUSH2 0xA03 JUMP JUMPDEST PUSH2 0x376 JUMP JUMPDEST STOP JUMPDEST CALLVALUE DUP1 ISZERO PUSH2 0x197 JUMPI PUSH1 0x0 DUP1 REVERT JUMPDEST POP PUSH2 0x1A0 PUSH2 0x531 JUMP JUMPDEST PUSH1 0x40 MLOAD PUSH2 0x1AD SWAP2 SWAP1 PUSH2 0xAE3 JUMP JUMPDEST PUSH1 0x40 MLOAD DUP1 SWAP2 SUB SWAP1 RETURN JUMPDEST CALLVALUE DUP1 ISZERO PUSH2 0x1C2 JUMPI PUSH1 0x0 DUP1 REVERT JUMPDEST POP PUSH2 0x1CB PUSH2 0x555 JUMP JUMPDEST STOP JUMPDEST CALLVALUE DUP1 ISZERO PUSH2 0x1D9 JUMPI PUSH1 0x0 DUP1 REVERT JUMPDEST POP PUSH2 0x1F4 PUSH1 0x4 DUP1 CALLDATASIZE SUB DUP2 ADD SWAP1 PUSH2 0x1EF SWAP2 SWAP1 PUSH2 0x866 JUMP JUMPDEST PUSH2 0x630 JUMP JUMPDEST PUSH1 0x40 MLOAD PUSH2 0x201 SWAP2 SWAP1 PUSH2 0xB19 JUMP JUMPDEST PUSH1 0x40 MLOAD DUP1 SWAP2 SUB SWAP1 RETURN JUMPDEST CALLVALUE DUP1 ISZERO PUSH2 0x216 JUMPI PUSH1 0x0 DUP1 REVERT JUMPDEST POP PUSH2 0x21F PUSH2 0x6A1 JUMP JUMPDEST PUSH1 0x40 MLOAD PUSH2 0x22C SWAP2 SWAP1 PUSH2 0x8A2 JUMP JUMPDEST PUSH1 0x40 MLOAD DUP1 SWAP2 SUB SWAP1 RETURN JUMPDEST CALLVALUE DUP1 ISZERO PUSH2 0x241 JUMPI PUSH1 0x0 DUP1 REVERT JUMPDEST POP PUSH2 0x25C PUSH1 0x4 DUP1 CALLDATASIZE SUB DUP2 ADD SWAP1 PUSH2 0x257 SWAP2 SWAP1 PUSH2 0xB72 JUMP JUMPDEST PUSH2 0x6AB JUMP JUMPDEST STOP JUMPDEST CALLVALUE DUP1 ISZERO PUSH2 0x26A JUMPI PUSH1 0x0 DUP1 REVERT JUMPDEST POP PUSH2 0x285 PUSH1 0x4 DUP1 CALLDATASIZE SUB DUP2 ADD SWAP1 PUSH2 0x280 SWAP2 SWAP1 PUSH2 0x866 JUMP JUMPDEST PUSH2 0x783 JUMP JUMPDEST PUSH1 0x40 MLOAD PUSH2 0x292 SWAP2 SWAP1 PUSH2 0xAE3 JUMP JUMPDEST PUSH1 0x40 MLOAD DUP1 SWAP2 SUB SWAP1 RETURN JUMPDEST PUSH1 0x0 DUP1 SLOAD SWAP1 PUSH2 0x100 EXP SWAP1 DIV PUSH20 0xFFFFFFFFFFFFFFFFFFFFFFFFFFFFFFFFFFFFFFFF AND PUSH20 0xFFFFFFFFFFFFFFFFFFFFFFFFFFFFFFFFFFFFFFFF AND CALLER PUSH20 0xFFFFFFFFFFFFFFFFFFFFFFFFFFFFFFFFFFFFFFFF AND EQ PUSH2 0x329 JUMPI PUSH1 0x40 MLOAD PUSH32 0x8C379A000000000000000000000000000000000000000000000000000000000 DUP2 MSTORE PUSH1 0x4 ADD PUSH2 0x320 SWAP1 PUSH2 0xC22 JUMP JUMPDEST PUSH1 0x40 MLOAD DUP1 SWAP2 SUB SWAP1 REVERT JUMPDEST DUP1 PUSH1 0x3 DUP2 SWAP1 SSTORE POP POP JUMP JUMPDEST PUSH1 0x0 PUSH1 0x2 PUSH1 0x0 DUP4 PUSH1 0xFF AND PUSH1 0xFF AND DUP2 MSTORE PUSH1 0x20 ADD SWAP1 DUP2 MSTORE PUSH1 0x20 ADD PUSH1 0x0 KECCAK256 SLOAD SWAP1 POP SWAP2 SWAP1 POP JUMP JUMPDEST PUSH1 0x2 PUSH1 0x20 MSTORE DUP1 PUSH1 0x0 MSTORE PUSH1 0x40 PUSH1 0x0 KECCAK256 PUSH1 0x0 SWAP2 POP SWAP1 POP SLOAD DUP2 JUMP JUMPDEST PUSH1 0x0 SELFBALANCE SWAP1 POP SWAP1 JUMP JUMPDEST PUSH1 0x0 PUSH2 0x381 DUP6 PUSH2 0x630 JUMP JUMPDEST SWAP1 POP DUP1 PUSH2 0x3C3 JUMPI PUSH1 0x40 MLOAD PUSH32 0x8C379A000000000000000000000000000000000000000000000000000000000 DUP2 MSTORE PUSH1 0x4 ADD PUSH2 0x3BA SWAP1 PUSH2 0xC8E JUMP JUMPDEST PUSH1 0x40 MLOAD DUP1 SWAP2 SUB SWAP1 REVERT JUMPDEST PUSH1 0x0 DUP5 MLOAD SUB PUSH2 0x407 JUMPI PUSH1 0x40 MLOAD PUSH32 0x8C379A000000000000000000000000000000000000000000000000000000000 DUP2 MSTORE PUSH1 0x4 ADD PUSH2 0x3FE SWAP1 PUSH2 0xCFA JUMP JUMPDEST PUSH1 0x40 MLOAD DUP1 SWAP2 SUB SWAP1 REVERT JUMPDEST PUSH1 0x0 DUP4 MLOAD SUB PUSH2 0x44B JUMPI PUSH1 0x40 MLOAD PUSH32 0x8C379A000000000000000000000000000000000000000000000000000000000 DUP2 MSTORE PUSH1 0x4 ADD PUSH2 0x442 SWAP1 PUSH2 0xD66 JUMP JUMPDEST PUSH1 0x40 MLOAD DUP1 SWAP2 SUB SWAP1 REVERT JUMPDEST DUP2 PUSH1 0x3 SLOAD PUSH2 0x459 SWAP2 SWAP1 PUSH2 0xDB5 JUMP JUMPDEST CALLVALUE LT ISZERO PUSH2 0x49B JUMPI PUSH1 0x40 MLOAD PUSH32 0x8C379A000000000000000000000000000000000000000000000000000000000 DUP2 MSTORE PUSH1 0x4 ADD PUSH2 0x492 SWAP1 PUSH2 0xE43 JUMP JUMPDEST PUSH1 0x40 MLOAD DUP1 SWAP2 SUB SWAP1 REVERT JUMPDEST CALLER PUSH1 0x1 PUSH1 0x0 DUP8 PUSH1 0xFF AND PUSH1 0xFF AND DUP2 MSTORE PUSH1 0x20 ADD SWAP1 DUP2 MSTORE PUSH1 0x20 ADD PUSH1 0x0 KECCAK256 PUSH1 0x0 PUSH2 0x100 EXP DUP2 SLOAD DUP2 PUSH20 0xFFFFFFFFFFFFFFFFFFFFFFFFFFFFFFFFFFFFFFFF MUL NOT AND SWAP1 DUP4 PUSH20 0xFFFFFFFFFFFFFFFFFFFFFFFFFFFFFFFFFFFFFFFF AND MUL OR SWAP1 SSTORE POP PUSH3 0x15180 DUP3 PUSH2 0x502 SWAP2 SWAP1 PUSH2 0xDB5 JUMP JUMPDEST TIMESTAMP PUSH2 0x50D SWAP2 SWAP1 PUSH2 0xE63 JUMP JUMPDEST PUSH1 0x2 PUSH1 0x0 DUP8 PUSH1 0xFF AND PUSH1 0xFF AND DUP2 MSTORE PUSH1 0x20 ADD SWAP1 DUP2 MSTORE PUSH1 0x20 ADD PUSH1 0x0 KECCAK256 DUP2 SWAP1 SSTORE POP POP POP POP POP POP JUMP JUMPDEST PUSH1 0x0 DUP1 SLOAD SWAP1 PUSH2 0x100 EXP SWAP1 DIV PUSH20 0xFFFFFFFFFFFFFFFFFFFFFFFFFFFFFFFFFFFFFFFF AND DUP2 JUMP JUMPDEST PUSH1 0x0 TIMESTAMP SWAP1 POP PUSH1 0x0 PUSH1 0x1 SWAP1 POP JUMPDEST PUSH1 0xFF DUP2 PUSH1 0xFF AND GT PUSH2 0x62C JUMPI PUSH1 0x0 PUSH1 0x2 PUSH1 0x0 DUP4 PUSH1 0xFF AND PUSH1 0xFF AND DUP2 MSTORE PUSH1 0x20 ADD SWAP1 DUP2 MSTORE PUSH1 0x20 ADD PUSH1 0x0 KECCAK256 SLOAD SWAP1 POP DUP3 DUP2 LT DUP1 ISZERO PUSH2 0x59A JUMPI POP PUSH1 0x0 DUP2 EQ ISZERO JUMPDEST ISZERO PUSH2 0x618 JUMPI PUSH1 0x0 PUSH1 0x2 PUSH1 0x0 DUP5 PUSH1 0xFF AND PUSH1 0xFF AND DUP2 MSTORE PUSH1 0x20 ADD SWAP1 DUP2 MSTORE PUSH1 0x20 ADD PUSH1 0x0 KECCAK256 DUP2 SWAP1 SSTORE POP PUSH1 0x0 PUSH1 0x1 PUSH1 0x0 DUP5 PUSH1 0xFF AND PUSH1 0xFF AND DUP2 MSTORE PUSH1 0x20 ADD SWAP1 DUP2 MSTORE PUSH1 0x20 ADD PUSH1 0x0 KECCAK256 PUSH1 0x0 PUSH2 0x100 EXP DUP2 SLOAD DUP2 PUSH20 0xFFFFFFFFFFFFFFFFFFFFFFFFFFFFFFFFFFFFFFFF MUL NOT AND SWAP1 DUP4 PUSH20 0xFFFFFFFFFFFFFFFFFFFFFFFFFFFFFFFFFFFFFFFF AND MUL OR SWAP1 SSTORE POP JUMPDEST POP DUP1 DUP1 PUSH2 0x624 SWAP1 PUSH2 0xE97 JUMP JUMPDEST SWAP2 POP POP PUSH2 0x561 JUMP JUMPDEST POP POP JUMP JUMPDEST PUSH1 0x0 DUP1 PUSH20 0xFFFFFFFFFFFFFFFFFFFFFFFFFFFFFFFFFFFFFFFF AND PUSH1 0x1 PUSH1 0x0 DUP5 PUSH1 0xFF AND PUSH1 0xFF AND DUP2 MSTORE PUSH1 0x20 ADD SWAP1 DUP2 MSTORE PUSH1 0x20 ADD PUSH1 0x0 KECCAK256 PUSH1 0x0 SWAP1 SLOAD SWAP1 PUSH2 0x100 EXP SWAP1 DIV PUSH20 0xFFFFFFFFFFFFFFFFFFFFFFFFFFFFFFFFFFFFFFFF AND PUSH20 0xFFFFFFFFFFFFFFFFFFFFFFFFFFFFFFFFFFFFFFFF AND EQ SWAP1 POP SWAP2 SWAP1 POP JUMP JUMPDEST PUSH1 0x0 PUSH1 0x3 SLOAD SWAP1 POP SWAP1 JUMP JUMPDEST PUSH1 0x0 DUP1 SLOAD SWAP1 PUSH2 0x100 EXP SWAP1 DIV PUSH20 0xFFFFFFFFFFFFFFFFFFFFFFFFFFFFFFFFFFFFFFFF AND PUSH20 0xFFFFFFFFFFFFFFFFFFFFFFFFFFFFFFFFFFFFFFFF AND CALLER PUSH20 0xFFFFFFFFFFFFFFFFFFFFFFFFFFFFFFFFFFFFFFFF AND EQ PUSH2 0x739 JUMPI PUSH1 0x40 MLOAD PUSH32 0x8C379A000000000000000000000000000000000000000000000000000000000 DUP2 MSTORE PUSH1 0x4 ADD PUSH2 0x730 SWAP1 PUSH2 0xC22 JUMP JUMPDEST PUSH1 0x40 MLOAD DUP1 SWAP2 SUB SWAP1 REVERT JUMPDEST DUP1 PUSH20 0xFFFFFFFFFFFFFFFFFFFFFFFFFFFFFFFFFFFFFFFF AND PUSH2 0x8FC SELFBALANCE SWAP1 DUP2 ISZERO MUL SWAP1 PUSH1 0x40 MLOAD PUSH1 0x0 PUSH1 0x40 MLOAD DUP1 DUP4 SUB DUP2 DUP6 DUP9 DUP9 CALL SWAP4 POP POP POP POP ISZERO DUP1 ISZERO PUSH2 0x77F JUMPI RETURNDATASIZE PUSH1 0x0 DUP1 RETURNDATACOPY RETURNDATASIZE PUSH1 0x0 REVERT JUMPDEST POP POP JUMP JUMPDEST PUSH1 0x1 PUSH1 0x20 MSTORE DUP1 PUSH1 0x0 MSTORE PUSH1 0x40 PUSH1 0x0 KECCAK256 PUSH1 0x0 SWAP2 POP SLOAD SWAP1 PUSH2 0x100 EXP SWAP1 DIV PUSH20 0xFFFFFFFFFFFFFFFFFFFFFFFFFFFFFFFFFFFFFFFF AND DUP2 JUMP JUMPDEST PUSH1 0x0 PUSH1 0x40 MLOAD SWAP1 POP SWAP1 JUMP JUMPDEST PUSH1 0x0 DUP1 REVERT JUMPDEST PUSH1 0x0 DUP1 REVERT JUMPDEST PUSH1 0x0 DUP2 SWAP1 POP SWAP2 SWAP1 POP JUMP JUMPDEST PUSH2 0x7DD DUP2 PUSH2 0x7CA JUMP JUMPDEST DUP2 EQ PUSH2 0x7E8 JUMPI PUSH1 0x0 DUP1 REVERT JUMPDEST POP JUMP JUMPDEST PUSH1 0x0 DUP2 CALLDATALOAD SWAP1 POP PUSH2 0x7FA DUP2 PUSH2 0x7D4 JUMP JUMPDEST SWAP3 SWAP2 POP POP JUMP JUMPDEST PUSH1 0x0 PUSH1 0x20 DUP3 DUP5 SUB SLT ISZERO PUSH2 0x816 JUMPI PUSH2 0x815 PUSH2 0x7C0 JUMP JUMPDEST JUMPDEST PUSH1 0x0 PUSH2 0x824 DUP5 DUP3 DUP6 ADD PUSH2 0x7EB JUMP JUMPDEST SWAP2 POP POP SWAP3 SWAP2 POP POP JUMP JUMPDEST PUSH1 0x0 PUSH1 0xFF DUP3 AND SWAP1 POP SWAP2 SWAP1 POP JUMP JUMPDEST PUSH2 0x843 DUP2 PUSH2 0x82D JUMP JUMPDEST DUP2 EQ PUSH2 0x84E JUMPI PUSH1 0x0 DUP1 REVERT JUMPDEST POP JUMP JUMPDEST PUSH1 0x0 DUP2 CALLDATALOAD SWAP1 POP PUSH2 0x860 DUP2 PUSH2 0x83A JUMP JUMPDEST SWAP3 SWAP2 POP POP JUMP JUMPDEST PUSH1 0x0 PUSH1 0x20 DUP3 DUP5 SUB SLT ISZERO PUSH2 0x87C JUMPI PUSH2 0x87B PUSH2 0x7C0 JUMP JUMPDEST JUMPDEST PUSH1 0x0 PUSH2 0x88A DUP5 DUP3 DUP6 ADD PUSH2 0x851 JUMP JUMPDEST SWAP2 POP POP SWAP3 SWAP2 POP POP JUMP JUMPDEST PUSH2 0x89C DUP2 PUSH2 0x7CA JUMP JUMPDEST DUP3 MSTORE POP POP JUMP JUMPDEST PUSH1 0x0 PUSH1 0x20 DUP3 ADD SWAP1 POP PUSH2 0x8B7 PUSH1 0x0 DUP4 ADD DUP5 PUSH2 0x893 JUMP JUMPDEST SWAP3 SWAP2 POP POP JUMP JUMPDEST PUSH1 0x0 DUP1 REVERT JUMPDEST PUSH1 0x0 DUP1 REVERT JUMPDEST PUSH1 0x0 PUSH1 0x1F NOT PUSH1 0x1F DUP4 ADD AND SWAP1 POP SWAP2 SWAP1 POP JUMP JUMPDEST PUSH32 0x4E487B7100000000000000000000000000000000000000000000000000000000 PUSH1 0x0 MSTORE PUSH1 0x41 PUSH1 0x4 MSTORE PUSH1 0x24 PUSH1 0x0 REVERT JUMPDEST PUSH2 0x910 DUP3 PUSH2 0x8C7 JUMP JUMPDEST DUP2 ADD DUP2 DUP2 LT PUSH8 0xFFFFFFFFFFFFFFFF DUP3 GT OR ISZERO PUSH2 0x92F JUMPI PUSH2 0x92E PUSH2 0x8D8 JUMP JUMPDEST JUMPDEST DUP1 PUSH1 0x40 MSTORE POP POP POP JUMP JUMPDEST PUSH1 0x0 PUSH2 0x942 PUSH2 0x7B6 JUMP JUMPDEST SWAP1 POP PUSH2 0x94E DUP3 DUP3 PUSH2 0x907 JUMP JUMPDEST SWAP2 SWAP1 POP JUMP JUMPDEST PUSH1 0x0 PUSH8 0xFFFFFFFFFFFFFFFF DUP3 GT ISZERO PUSH2 0x96E JUMPI PUSH2 0x96D PUSH2 0x8D8 JUMP JUMPDEST JUMPDEST PUSH2 0x977 DUP3 PUSH2 0x8C7 JUMP JUMPDEST SWAP1 POP PUSH1 0x20 DUP2 ADD SWAP1 POP SWAP2 SWAP1 POP JUMP JUMPDEST DUP3 DUP2 DUP4 CALLDATACOPY PUSH1 0x0 DUP4 DUP4 ADD MSTORE POP POP POP JUMP JUMPDEST PUSH1 0x0 PUSH2 0x9A6 PUSH2 0x9A1 DUP5 PUSH2 0x953 JUMP JUMPDEST PUSH2 0x938 JUMP JUMPDEST SWAP1 POP DUP3 DUP2 MSTORE PUSH1 0x20 DUP2 ADD DUP5 DUP5 DUP5 ADD GT ISZERO PUSH2 0x9C2 JUMPI PUSH2 0x9C1 PUSH2 0x8C2 JUMP JUMPDEST JUMPDEST PUSH2 0x9CD DUP5 DUP3 DUP6 PUSH2 0x984 JUMP JUMPDEST POP SWAP4 SWAP3 POP POP POP JUMP JUMPDEST PUSH1 0x0 DUP3 PUSH1 0x1F DUP4 ADD SLT PUSH2 0x9EA JUMPI PUSH2 0x9E9 PUSH2 0x8BD JUMP JUMPDEST JUMPDEST DUP2 CALLDATALOAD PUSH2 0x9FA DUP5 DUP3 PUSH1 0x20 DUP7 ADD PUSH2 0x993 JUMP JUMPDEST SWAP2 POP POP SWAP3 SWAP2 POP POP JUMP JUMPDEST PUSH1 0x0 DUP1 PUSH1 0x0 DUP1 PUSH1 0x80 DUP6 DUP8 SUB SLT ISZERO PUSH2 0xA1D JUMPI PUSH2 0xA1C PUSH2 0x7C0 JUMP JUMPDEST JUMPDEST PUSH1 0x0 PUSH2 0xA2B DUP8 DUP3 DUP9 ADD PUSH2 0x851 JUMP JUMPDEST SWAP5 POP POP PUSH1 0x20 DUP6 ADD CALLDATALOAD PUSH8 0xFFFFFFFFFFFFFFFF DUP2 GT ISZERO PUSH2 0xA4C JUMPI PUSH2 0xA4B PUSH2 0x7C5 JUMP JUMPDEST JUMPDEST PUSH2 0xA58 DUP8 DUP3 DUP9 ADD PUSH2 0x9D5 JUMP JUMPDEST SWAP4 POP POP PUSH1 0x40 DUP6 ADD CALLDATALOAD PUSH8 0xFFFFFFFFFFFFFFFF DUP2 GT ISZERO PUSH2 0xA79 JUMPI PUSH2 0xA78 PUSH2 0x7C5 JUMP JUMPDEST JUMPDEST PUSH2 0xA85 DUP8 DUP3 DUP9 ADD PUSH2 0x9D5 JUMP JUMPDEST SWAP3 POP POP PUSH1 0x60 PUSH2 0xA96 DUP8 DUP3 DUP9 ADD PUSH2 0x7EB JUMP JUMPDEST SWAP2 POP POP SWAP3 SWAP6 SWAP2 SWAP5 POP SWAP3 POP JUMP JUMPDEST PUSH1 0x0 PUSH20 0xFFFFFFFFFFFFFFFFFFFFFFFFFFFFFFFFFFFFFFFF DUP3 AND SWAP1 POP SWAP2 SWAP1 POP JUMP JUMPDEST PUSH1 0x0 PUSH2 0xACD DUP3 PUSH2 0xAA2 JUMP JUMPDEST SWAP1 POP SWAP2 SWAP1 POP JUMP JUMPDEST PUSH2 0xADD DUP2 PUSH2 0xAC2 JUMP JUMPDEST DUP3 MSTORE POP POP JUMP JUMPDEST PUSH1 0x0 PUSH1 0x20 DUP3 ADD SWAP1 POP PUSH2 0xAF8 PUSH1 0x0 DUP4 ADD DUP5 PUSH2 0xAD4 JUMP JUMPDEST SWAP3 SWAP2 POP POP JUMP JUMPDEST PUSH1 0x0 DUP2 ISZERO ISZERO SWAP1 POP SWAP2 SWAP1 POP JUMP JUMPDEST PUSH2 0xB13 DUP2 PUSH2 0xAFE JUMP JUMPDEST DUP3 MSTORE POP POP JUMP JUMPDEST PUSH1 0x0 PUSH1 0x20 DUP3 ADD SWAP1 POP PUSH2 0xB2E PUSH1 0x0 DUP4 ADD DUP5 PUSH2 0xB0A JUMP JUMPDEST SWAP3 SWAP2 POP POP JUMP JUMPDEST PUSH1 0x0 PUSH2 0xB3F DUP3 PUSH2 0xAA2 JUMP JUMPDEST SWAP1 POP SWAP2 SWAP1 POP JUMP JUMPDEST PUSH2 0xB4F DUP2 PUSH2 0xB34 JUMP JUMPDEST DUP2 EQ PUSH2 0xB5A JUMPI PUSH1 0x0 DUP1 REVERT JUMPDEST POP JUMP JUMPDEST PUSH1 0x0 DUP2 CALLDATALOAD SWAP1 POP PUSH2 0xB6C DUP2 PUSH2 0xB46 JUMP JUMPDEST SWAP3 SWAP2 POP POP JUMP JUMPDEST PUSH1 0x0 PUSH1 0x20 DUP3 DUP5 SUB SLT ISZERO PUSH2 0xB88 JUMPI PUSH2 0xB87 PUSH2 0x7C0 JUMP JUMPDEST JUMPDEST PUSH1 0x0 PUSH2 0xB96 DUP5 DUP3 DUP6 ADD PUSH2 0xB5D JUMP JUMPDEST SWAP2 POP POP SWAP3 SWAP2 POP POP JUMP JUMPDEST PUSH1 0x0 DUP3 DUP3 MSTORE PUSH1 0x20 DUP3 ADD SWAP1 POP SWAP3 SWAP2 POP POP JUMP JUMPDEST PUSH32 0x4F6E6C79206F776E65722063616E206578656375746520746869732066756E63 PUSH1 0x0 DUP3 ADD MSTORE PUSH32 0x74696F6E00000000000000000000000000000000000000000000000000000000 PUSH1 0x20 DUP3 ADD MSTORE POP JUMP JUMPDEST PUSH1 0x0 PUSH2 0xC0C PUSH1 0x24 DUP4 PUSH2 0xB9F JUMP JUMPDEST SWAP2 POP PUSH2 0xC17 DUP3 PUSH2 0xBB0 JUMP JUMPDEST PUSH1 0x40 DUP3 ADD SWAP1 POP SWAP2 SWAP1 POP JUMP JUMPDEST PUSH1 0x0 PUSH1 0x20 DUP3 ADD SWAP1 POP DUP2 DUP2 SUB PUSH1 0x0 DUP4 ADD MSTORE PUSH2 0xC3B DUP2 PUSH2 0xBFF JUMP JUMPDEST SWAP1 POP SWAP2 SWAP1 POP JUMP JUMPDEST PUSH32 0x54686520726F6F6D2068617320616C7265616479206265656E2074616B656E00 PUSH1 0x0 DUP3 ADD MSTORE POP JUMP JUMPDEST PUSH1 0x0 PUSH2 0xC78 PUSH1 0x1F DUP4 PUSH2 0xB9F JUMP JUMPDEST SWAP2 POP PUSH2 0xC83 DUP3 PUSH2 0xC42 JUMP JUMPDEST PUSH1 0x20 DUP3 ADD SWAP1 POP SWAP2 SWAP1 POP JUMP JUMPDEST PUSH1 0x0 PUSH1 0x20 DUP3 ADD SWAP1 POP DUP2 DUP2 SUB PUSH1 0x0 DUP4 ADD MSTORE PUSH2 0xCA7 DUP2 PUSH2 0xC6B JUMP JUMPDEST SWAP1 POP SWAP2 SWAP1 POP JUMP JUMPDEST PUSH32 0x5370656369667920796F7572206E616D65000000000000000000000000000000 PUSH1 0x0 DUP3 ADD MSTORE POP JUMP JUMPDEST PUSH1 0x0 PUSH2 0xCE4 PUSH1 0x11 DUP4 PUSH2 0xB9F JUMP JUMPDEST SWAP2 POP PUSH2 0xCEF DUP3 PUSH2 0xCAE JUMP JUMPDEST PUSH1 0x20 DUP3 ADD SWAP1 POP SWAP2 SWAP1 POP JUMP JUMPDEST PUSH1 0x0 PUSH1 0x20 DUP3 ADD SWAP1 POP DUP2 DUP2 SUB PUSH1 0x0 DUP4 ADD MSTORE PUSH2 0xD13 DUP2 PUSH2 0xCD7 JUMP JUMPDEST SWAP1 POP SWAP2 SWAP1 POP JUMP JUMPDEST PUSH32 0x5370656369667920796F7572207375726E616D65000000000000000000000000 PUSH1 0x0 DUP3 ADD MSTORE POP JUMP JUMPDEST PUSH1 0x0 PUSH2 0xD50 PUSH1 0x14 DUP4 PUSH2 0xB9F JUMP JUMPDEST SWAP2 POP PUSH2 0xD5B DUP3 PUSH2 0xD1A JUMP JUMPDEST PUSH1 0x20 DUP3 ADD SWAP1 POP SWAP2 SWAP1 POP JUMP JUMPDEST PUSH1 0x0 PUSH1 0x20 DUP3 ADD SWAP1 POP DUP2 DUP2 SUB PUSH1 0x0 DUP4 ADD MSTORE PUSH2 0xD7F DUP2 PUSH2 0xD43 JUMP JUMPDEST SWAP1 POP SWAP2 SWAP1 POP JUMP JUMPDEST PUSH32 0x4E487B7100000000000000000000000000000000000000000000000000000000 PUSH1 0x0 MSTORE PUSH1 0x11 PUSH1 0x4 MSTORE PUSH1 0x24 PUSH1 0x0 REVERT JUMPDEST PUSH1 0x0 PUSH2 0xDC0 DUP3 PUSH2 0x7CA JUMP JUMPDEST SWAP2 POP PUSH2 0xDCB DUP4 PUSH2 0x7CA JUMP JUMPDEST SWAP3 POP DUP3 DUP3 MUL PUSH2 0xDD9 DUP2 PUSH2 0x7CA JUMP JUMPDEST SWAP2 POP DUP3 DUP3 DIV DUP5 EQ DUP4 ISZERO OR PUSH2 0xDF0 JUMPI PUSH2 0xDEF PUSH2 0xD86 JUMP JUMPDEST JUMPDEST POP SWAP3 SWAP2 POP POP JUMP JUMPDEST PUSH32 0x596F7520686176656E27742073656E7420656E6F756768206574686572000000 PUSH1 0x0 DUP3 ADD MSTORE POP JUMP JUMPDEST PUSH1 0x0 PUSH2 0xE2D PUSH1 0x1D DUP4 PUSH2 0xB9F JUMP JUMPDEST SWAP2 POP PUSH2 0xE38 DUP3 PUSH2 0xDF7 JUMP JUMPDEST PUSH1 0x20 DUP3 ADD SWAP1 POP SWAP2 SWAP1 POP JUMP JUMPDEST PUSH1 0x0 PUSH1 0x20 DUP3 ADD SWAP1 POP DUP2 DUP2 SUB PUSH1 0x0 DUP4 ADD MSTORE PUSH2 0xE5C DUP2 PUSH2 0xE20 JUMP JUMPDEST SWAP1 POP SWAP2 SWAP1 POP JUMP JUMPDEST PUSH1 0x0 PUSH2 0xE6E DUP3 PUSH2 0x7CA JUMP JUMPDEST SWAP2 POP PUSH2 0xE79 DUP4 PUSH2 0x7CA JUMP JUMPDEST SWAP3 POP DUP3 DUP3 ADD SWAP1 POP DUP1 DUP3 GT ISZERO PUSH2 0xE91 JUMPI PUSH2 0xE90 PUSH2 0xD86 JUMP JUMPDEST JUMPDEST SWAP3 SWAP2 POP POP JUMP JUMPDEST PUSH1 0x0 PUSH2 0xEA2 DUP3 PUSH2 0x82D JUMP JUMPDEST SWAP2 POP PUSH1 0xFF DUP3 SUB PUSH2 0xEB5 JUMPI PUSH2 0xEB4 PUSH2 0xD86 JUMP JUMPDEST JUMPDEST PUSH1 0x1 DUP3 ADD SWAP1 POP SWAP2 SWAP1 POP JUMP INVALID LOG2 PUSH5 0x6970667358 0x22 SLT KECCAK256 SIGNEXTEND SWAP16 PUSH3 0x9D427F SWAP13 PUSH24 0x4E0469AD39EC2E5BD364FBFE4C15EE26337D2D289F6EE615 PUSH5 0x736F6C6343 STOP ADDMOD SLT STOP CALLER "
				},
				"gasEstimates": {
					"creation": {
						"codeDepositCost": "766000",
						"executionCost": "47171",
						"totalCost": "813171"
					},
					"external": {
						"RentRoom(uint8,string,string,uint256)": "infinite",
						"RoomExpireTime(uint8)": "2816",
						"RoomNumberToCustomer(uint8)": "2955",
						"changeRoomPrice(uint256)": "24688",
						"checkRoomExpiration(uint8)": "2821",
						"getCurrentContractBalance()": "406",
						"getRoomsPrice()": "2503",
						"isRoomAvailable(uint8)": "2902",
						"owner()": "2511",
						"removeExpiredCustomersFromRooms()": "infinite",
						"withdrawAll(address)": "infinite"
					}
				},
				"methodIdentifiers": {
					"RentRoom(uint8,string,string,uint256)": "86a1b2dc",
					"RoomExpireTime(uint8)": "4297fe02",
					"RoomNumberToCustomer(uint8)": "fc76c1d6",
					"changeRoomPrice(uint256)": "30392ac6",
					"checkRoomExpiration(uint8)": "3bd33af8",
					"getCurrentContractBalance()": "6d790081",
					"getRoomsPrice()": "ee562879",
					"isRoomAvailable(uint8)": "bfdbac03",
					"owner()": "8da5cb5b",
					"removeExpiredCustomersFromRooms()": "bdfe2eea",
					"withdrawAll(address)": "fa09e630"
				}
			},
			"storageLayout": {
				"storage": [
					{
						"astId": 3,
						"contract": "contracts/Hostel.sol:Hostel",
						"label": "owner",
						"offset": 0,
						"slot": "0",
						"type": "t_address"
					},
					{
						"astId": 7,
						"contract": "contracts/Hostel.sol:Hostel",
						"label": "RoomNumberToCustomer",
						"offset": 0,
						"slot": "1",
						"type": "t_mapping(t_uint8,t_address)"
					},
					{
						"astId": 11,
						"contract": "contracts/Hostel.sol:Hostel",
						"label": "RoomExpireTime",
						"offset": 0,
						"slot": "2",
						"type": "t_mapping(t_uint8,t_uint256)"
					},
					{
						"astId": 14,
						"contract": "contracts/Hostel.sol:Hostel",
						"label": "RoomPriceWei",
						"offset": 0,
						"slot": "3",
						"type": "t_uint256"
					}
				],
				"types": {
					"t_address": {
						"encoding": "inplace",
						"label": "address",
						"numberOfBytes": "20"
					},
					"t_mapping(t_uint8,t_address)": {
						"encoding": "mapping",
						"key": "t_uint8",
						"label": "mapping(uint8 => address)",
						"numberOfBytes": "32",
						"value": "t_address"
					},
					"t_mapping(t_uint8,t_uint256)": {
						"encoding": "mapping",
						"key": "t_uint8",
						"label": "mapping(uint8 => uint256)",
						"numberOfBytes": "32",
						"value": "t_uint256"
					},
					"t_uint256": {
						"encoding": "inplace",
						"label": "uint256",
						"numberOfBytes": "32"
					},
					"t_uint8": {
						"encoding": "inplace",
						"label": "uint8",
						"numberOfBytes": "1"
					}
				}
			},
			"userdoc": {
				"kind": "user",
				"methods": {},
				"version": 1
			}
		}
	}
}